{"abi":[{"type":"constructor","inputs":[],"stateMutability":"nonpayable"},{"type":"function","name":"ADMIN_ROLE","inputs":[],"outputs":[{"name":"","type":"bytes32","internalType":"bytes32"}],"stateMutability":"view"},{"type":"function","name":"DEFAULT_ADMIN_ROLE","inputs":[],"outputs":[{"name":"","type":"bytes32","internalType":"bytes32"}],"stateMutability":"view"},{"type":"function","name":"MAX_AUTHORIZED_USERS","inputs":[],"outputs":[{"name":"","type":"uint256","internalType":"uint256"}],"stateMutability":"view"},{"type":"function","name":"PAUSER_ROLE","inputs":[],"outputs":[{"name":"","type":"bytes32","internalType":"bytes32"}],"stateMutability":"view"},{"type":"function","name":"VERSION","inputs":[],"outputs":[{"name":"","type":"string","internalType":"string"}],"stateMutability":"view"},{"type":"function","name":"admin","inputs":[],"outputs":[{"name":"","type":"address","internalType":"address"}],"stateMutability":"view"},{"type":"function","name":"approve","inputs":[{"name":"to","type":"address","internalType":"address"},{"name":"tokenId","type":"uint256","internalType":"uint256"}],"outputs":[],"stateMutability":"nonpayable"},{"type":"function","name":"authorizeUsage","inputs":[{"name":"tokenId","type":"uint256","internalType":"uint256"},{"name":"to","type":"address","internalType":"address"}],"outputs":[],"stateMutability":"nonpayable"},{"type":"function","name":"authorizedUsersOf","inputs":[{"name":"tokenId","type":"uint256","internalType":"uint256"}],"outputs":[{"name":"","type":"address[]","internalType":"address[]"}],"stateMutability":"view"},{"type":"function","name":"batchAuthorizeUsage","inputs":[{"name":"tokenId","type":"uint256","internalType":"uint256"},{"name":"users","type":"address[]","internalType":"address[]"}],"outputs":[],"stateMutability":"nonpayable"},{"type":"function","name":"clearAuthorizedUsers","inputs":[{"name":"tokenId","type":"uint256","internalType":"uint256"}],"outputs":[],"stateMutability":"nonpayable"},{"type":"function","name":"delegateAccess","inputs":[{"name":"assistant","type":"address","internalType":"address"}],"outputs":[],"stateMutability":"nonpayable"},{"type":"function","name":"getAgentProfile","inputs":[{"name":"tokenId","type":"uint256","internalType":"uint256"}],"outputs":[{"name":"","type":"tuple","internalType":"struct AgentProfile","components":[{"name":"personality","type":"string","internalType":"string"},{"name":"desires","type":"string","internalType":"string"},{"name":"skills","type":"string[]","internalType":"string[]"},{"name":"activityLogHash","type":"bytes32","internalType":"bytes32"},{"name":"lastPassionTimestamp","type":"uint256","internalType":"uint256"},{"name":"happinessScore","type":"uint8","internalType":"uint8"}]}],"stateMutability":"view"},{"type":"function","name":"getApproved","inputs":[{"name":"tokenId","type":"uint256","internalType":"uint256"}],"outputs":[{"name":"","type":"address","internalType":"address"}],"stateMutability":"view"},{"type":"function","name":"getDelegateAccess","inputs":[{"name":"user","type":"address","internalType":"address"}],"outputs":[{"name":"","type":"address","internalType":"address"}],"stateMutability":"view"},{"type":"function","name":"getRoleAdmin","inputs":[{"name":"role","type":"bytes32","internalType":"bytes32"}],"outputs":[{"name":"","type":"bytes32","internalType":"bytes32"}],"stateMutability":"view"},{"type":"function","name":"grantRole","inputs":[{"name":"role","type":"bytes32","internalType":"bytes32"},{"name":"account","type":"address","internalType":"address"}],"outputs":[],"stateMutability":"nonpayable"},{"type":"function","name":"hasRole","inputs":[{"name":"role","type":"bytes32","internalType":"bytes32"},{"name":"account","type":"address","internalType":"address"}],"outputs":[{"name":"","type":"bool","internalType":"bool"}],"stateMutability":"view"},{"type":"function","name":"iClone","inputs":[{"name":"to","type":"address","internalType":"address"},{"name":"tokenId","type":"uint256","internalType":"uint256"},{"name":"proofs","type":"tuple[]","internalType":"struct TransferValidityProof[]","components":[{"name":"accessProof","type":"tuple","internalType":"struct AccessProof","components":[{"name":"oldDataHash","type":"bytes32","internalType":"bytes32"},{"name":"newDataHash","type":"bytes32","internalType":"bytes32"},{"name":"nonce","type":"bytes","internalType":"bytes"},{"name":"encryptedPubKey","type":"bytes","internalType":"bytes"},{"name":"proof","type":"bytes","internalType":"bytes"}]},{"name":"ownershipProof","type":"tuple","internalType":"struct OwnershipProof","components":[{"name":"oracleType","type":"uint8","internalType":"enum OracleType"},{"name":"oldDataHash","type":"bytes32","internalType":"bytes32"},{"name":"newDataHash","type":"bytes32","internalType":"bytes32"},{"name":"sealedKey","type":"bytes","internalType":"bytes"},{"name":"encryptedPubKey","type":"bytes","internalType":"bytes"},{"name":"nonce","type":"bytes","internalType":"bytes"},{"name":"proof","type":"bytes","internalType":"bytes"}]}]}],"outputs":[{"name":"","type":"uint256","internalType":"uint256"}],"stateMutability":"nonpayable"},{"type":"function","name":"iCloneFrom","inputs":[{"name":"from","type":"address","internalType":"address"},{"name":"to","type":"address","internalType":"address"},{"name":"tokenId","type":"uint256","internalType":"uint256"},{"name":"proofs","type":"tuple[]","internalType":"struct TransferValidityProof[]","components":[{"name":"accessProof","type":"tuple","internalType":"struct AccessProof","components":[{"name":"oldDataHash","type":"bytes32","internalType":"bytes32"},{"name":"newDataHash","type":"bytes32","internalType":"bytes32"},{"name":"nonce","type":"bytes","internalType":"bytes"},{"name":"encryptedPubKey","type":"bytes","internalType":"bytes"},{"name":"proof","type":"bytes","internalType":"bytes"}]},{"name":"ownershipProof","type":"tuple","internalType":"struct OwnershipProof","components":[{"name":"oracleType","type":"uint8","internalType":"enum OracleType"},{"name":"oldDataHash","type":"bytes32","internalType":"bytes32"},{"name":"newDataHash","type":"bytes32","internalType":"bytes32"},{"name":"sealedKey","type":"bytes","internalType":"bytes"},{"name":"encryptedPubKey","type":"bytes","internalType":"bytes"},{"name":"nonce","type":"bytes","internalType":"bytes"},{"name":"proof","type":"bytes","internalType":"bytes"}]}]}],"outputs":[{"name":"","type":"uint256","internalType":"uint256"}],"stateMutability":"nonpayable"},{"type":"function","name":"iTransfer","inputs":[{"name":"to","type":"address","internalType":"address"},{"name":"tokenId","type":"uint256","internalType":"uint256"},{"name":"proofs","type":"tuple[]","internalType":"struct TransferValidityProof[]","components":[{"name":"accessProof","type":"tuple","internalType":"struct AccessProof","components":[{"name":"oldDataHash","type":"bytes32","internalType":"bytes32"},{"name":"newDataHash","type":"bytes32","internalType":"bytes32"},{"name":"nonce","type":"bytes","internalType":"bytes"},{"name":"encryptedPubKey","type":"bytes","internalType":"bytes"},{"name":"proof","type":"bytes","internalType":"bytes"}]},{"name":"ownershipProof","type":"tuple","internalType":"struct OwnershipProof","components":[{"name":"oracleType","type":"uint8","internalType":"enum OracleType"},{"name":"oldDataHash","type":"bytes32","internalType":"bytes32"},{"name":"newDataHash","type":"bytes32","internalType":"bytes32"},{"name":"sealedKey","type":"bytes","internalType":"bytes"},{"name":"encryptedPubKey","type":"bytes","internalType":"bytes"},{"name":"nonce","type":"bytes","internalType":"bytes"},{"name":"proof","type":"bytes","internalType":"bytes"}]}]}],"outputs":[],"stateMutability":"nonpayable"},{"type":"function","name":"iTransferFrom","inputs":[{"name":"from","type":"address","internalType":"address"},{"name":"to","type":"address","internalType":"address"},{"name":"tokenId","type":"uint256","internalType":"uint256"},{"name":"proofs","type":"tuple[]","internalType":"struct TransferValidityProof[]","components":[{"name":"accessProof","type":"tuple","internalType":"struct AccessProof","components":[{"name":"oldDataHash","type":"bytes32","internalType":"bytes32"},{"name":"newDataHash","type":"bytes32","internalType":"bytes32"},{"name":"nonce","type":"bytes","internalType":"bytes"},{"name":"encryptedPubKey","type":"bytes","internalType":"bytes"},{"name":"proof","type":"bytes","internalType":"bytes"}]},{"name":"ownershipProof","type":"tuple","internalType":"struct OwnershipProof","components":[{"name":"oracleType","type":"uint8","internalType":"enum OracleType"},{"name":"oldDataHash","type":"bytes32","internalType":"bytes32"},{"name":"newDataHash","type":"bytes32","internalType":"bytes32"},{"name":"sealedKey","type":"bytes","internalType":"bytes"},{"name":"encryptedPubKey","type":"bytes","internalType":"bytes"},{"name":"nonce","type":"bytes","internalType":"bytes"},{"name":"proof","type":"bytes","internalType":"bytes"}]}]}],"outputs":[],"stateMutability":"nonpayable"},{"type":"function","name":"initialize","inputs":[{"name":"name_","type":"string","internalType":"string"},{"name":"symbol_","type":"string","internalType":"string"},{"name":"verifierAddr","type":"address","internalType":"address"},{"name":"admin_","type":"address","internalType":"address"}],"outputs":[],"stateMutability":"nonpayable"},{"type":"function","name":"intelligentDataOf","inputs":[{"name":"tokenId","type":"uint256","internalType":"uint256"}],"outputs":[{"name":"","type":"tuple[]","internalType":"struct IntelligentData[]","components":[{"name":"dataDescription","type":"string","internalType":"string"},{"name":"dataHash","type":"bytes32","internalType":"bytes32"}]}],"stateMutability":"view"},{"type":"function","name":"isApprovedForAll","inputs":[{"name":"owner","type":"address","internalType":"address"},{"name":"operator","type":"address","internalType":"address"}],"outputs":[{"name":"","type":"bool","internalType":"bool"}],"stateMutability":"view"},{"type":"function","name":"mint","inputs":[{"name":"iDatas","type":"tuple[]","internalType":"struct IntelligentData[]","components":[{"name":"dataDescription","type":"string","internalType":"string"},{"name":"dataHash","type":"bytes32","internalType":"bytes32"}]},{"name":"to","type":"address","internalType":"address"},{"name":"profile","type":"tuple","internalType":"struct AgentProfile","components":[{"name":"personality","type":"string","internalType":"string"},{"name":"desires","type":"string","internalType":"string"},{"name":"skills","type":"string[]","internalType":"string[]"},{"name":"activityLogHash","type":"bytes32","internalType":"bytes32"},{"name":"lastPassionTimestamp","type":"uint256","internalType":"uint256"},{"name":"happinessScore","type":"uint8","internalType":"uint8"}]}],"outputs":[{"name":"tokenId","type":"uint256","internalType":"uint256"}],"stateMutability":"payable"},{"type":"function","name":"name","inputs":[],"outputs":[{"name":"","type":"string","internalType":"string"}],"stateMutability":"view"},{"type":"function","name":"ownerOf","inputs":[{"name":"tokenId","type":"uint256","internalType":"uint256"}],"outputs":[{"name":"","type":"address","internalType":"address"}],"stateMutability":"view"},{"type":"function","name":"paused","inputs":[],"outputs":[{"name":"","type":"bool","internalType":"bool"}],"stateMutability":"view"},{"type":"function","name":"renounceRole","inputs":[{"name":"role","type":"bytes32","internalType":"bytes32"},{"name":"callerConfirmation","type":"address","internalType":"address"}],"outputs":[],"stateMutability":"nonpayable"},{"type":"function","name":"revokeAuthorization","inputs":[{"name":"tokenId","type":"uint256","internalType":"uint256"},{"name":"user","type":"address","internalType":"address"}],"outputs":[],"stateMutability":"nonpayable"},{"type":"function","name":"revokeRole","inputs":[{"name":"role","type":"bytes32","internalType":"bytes32"},{"name":"account","type":"address","internalType":"address"}],"outputs":[],"stateMutability":"nonpayable"},{"type":"function","name":"setAdmin","inputs":[{"name":"newAdmin","type":"address","internalType":"address"}],"outputs":[],"stateMutability":"nonpayable"},{"type":"function","name":"setApprovalForAll","inputs":[{"name":"operator","type":"address","internalType":"address"},{"name":"approved","type":"bool","internalType":"bool"}],"outputs":[],"stateMutability":"nonpayable"},{"type":"function","name":"setOracle","inputs":[{"name":"newOracle","type":"address","internalType":"address"}],"outputs":[],"stateMutability":"nonpayable"},{"type":"function","name":"supportsInterface","inputs":[{"name":"interfaceId","type":"bytes4","internalType":"bytes4"}],"outputs":[{"name":"","type":"bool","internalType":"bool"}],"stateMutability":"view"},{"type":"function","name":"symbol","inputs":[],"outputs":[{"name":"","type":"string","internalType":"string"}],"stateMutability":"view"},{"type":"function","name":"transferFrom","inputs":[{"name":"from","type":"address","internalType":"address"},{"name":"to","type":"address","internalType":"address"},{"name":"tokenId","type":"uint256","internalType":"uint256"}],"outputs":[],"stateMutability":"nonpayable"},{"type":"function","name":"updateHappiness","inputs":[{"name":"tokenId","type":"uint256","internalType":"uint256"},{"name":"newHappinessScore","type":"uint8","internalType":"uint8"}],"outputs":[],"stateMutability":"nonpayable"},{"type":"function","name":"updateVerifier","inputs":[{"name":"newVerifier","type":"address","internalType":"address"}],"outputs":[],"stateMutability":"nonpayable"},{"type":"function","name":"verifier","inputs":[],"outputs":[{"name":"","type":"address","internalType":"contract IERC7857DataVerifier"}],"stateMutability":"view"},{"type":"event","name":"AdminChanged","inputs":[{"name":"_oldAdmin","type":"address","indexed":true,"internalType":"address"},{"name":"_newAdmin","type":"address","indexed":true,"internalType":"address"}],"anonymous":false},{"type":"event","name":"Approval","inputs":[{"name":"_from","type":"address","indexed":true,"internalType":"address"},{"name":"_to","type":"address","indexed":true,"internalType":"address"},{"name":"_tokenId","type":"uint256","indexed":true,"internalType":"uint256"}],"anonymous":false},{"type":"event","name":"ApprovalForAll","inputs":[{"name":"_owner","type":"address","indexed":true,"internalType":"address"},{"name":"_operator","type":"address","indexed":true,"internalType":"address"},{"name":"_approved","type":"bool","indexed":false,"internalType":"bool"}],"anonymous":false},{"type":"event","name":"Authorization","inputs":[{"name":"_from","type":"address","indexed":true,"internalType":"address"},{"name":"_to","type":"address","indexed":true,"internalType":"address"},{"name":"_tokenId","type":"uint256","indexed":true,"internalType":"uint256"}],"anonymous":false},{"type":"event","name":"AuthorizationRevoked","inputs":[{"name":"_from","type":"address","indexed":true,"internalType":"address"},{"name":"_to","type":"address","indexed":true,"internalType":"address"},{"name":"_tokenId","type":"uint256","indexed":true,"internalType":"uint256"}],"anonymous":false},{"type":"event","name":"AuthorizedUsersCleared","inputs":[{"name":"owner","type":"address","indexed":true,"internalType":"address"},{"name":"tokenId","type":"uint256","indexed":true,"internalType":"uint256"}],"anonymous":false},{"type":"event","name":"Cloned","inputs":[{"name":"_tokenId","type":"uint256","indexed":true,"internalType":"uint256"},{"name":"_newTokenId","type":"uint256","indexed":true,"internalType":"uint256"},{"name":"_from","type":"address","indexed":false,"internalType":"address"},{"name":"_to","type":"address","indexed":false,"internalType":"address"}],"anonymous":false},{"type":"event","name":"DelegateAccess","inputs":[{"name":"_user","type":"address","indexed":true,"internalType":"address"},{"name":"_assistant","type":"address","indexed":true,"internalType":"address"}],"anonymous":false},{"type":"event","name":"Initialized","inputs":[{"name":"version","type":"uint64","indexed":false,"internalType":"uint64"}],"anonymous":false},{"type":"event","name":"Minted","inputs":[{"name":"_tokenId","type":"uint256","indexed":true,"internalType":"uint256"},{"name":"_creator","type":"address","indexed":true,"internalType":"address"},{"name":"_owner","type":"address","indexed":true,"internalType":"address"}],"anonymous":false},{"type":"event","name":"Paused","inputs":[{"name":"account","type":"address","indexed":false,"internalType":"address"}],"anonymous":false},{"type":"event","name":"PublishedSealedKey","inputs":[{"name":"_to","type":"address","indexed":true,"internalType":"address"},{"name":"_tokenId","type":"uint256","indexed":true,"internalType":"uint256"},{"name":"_sealedKeys","type":"bytes[]","indexed":false,"internalType":"bytes[]"}],"anonymous":false},{"type":"event","name":"RoleAdminChanged","inputs":[{"name":"role","type":"bytes32","indexed":true,"internalType":"bytes32"},{"name":"previousAdminRole","type":"bytes32","indexed":true,"internalType":"bytes32"},{"name":"newAdminRole","type":"bytes32","indexed":true,"internalType":"bytes32"}],"anonymous":false},{"type":"event","name":"RoleGranted","inputs":[{"name":"role","type":"bytes32","indexed":true,"internalType":"bytes32"},{"name":"account","type":"address","indexed":true,"internalType":"address"},{"name":"sender","type":"address","indexed":true,"internalType":"address"}],"anonymous":false},{"type":"event","name":"RoleRevoked","inputs":[{"name":"role","type":"bytes32","indexed":true,"internalType":"bytes32"},{"name":"account","type":"address","indexed":true,"internalType":"address"},{"name":"sender","type":"address","indexed":true,"internalType":"address"}],"anonymous":false},{"type":"event","name":"Transferred","inputs":[{"name":"_tokenId","type":"uint256","indexed":false,"internalType":"uint256"},{"name":"_from","type":"address","indexed":true,"internalType":"address"},{"name":"_to","type":"address","indexed":true,"internalType":"address"}],"anonymous":false},{"type":"event","name":"Unpaused","inputs":[{"name":"account","type":"address","indexed":false,"internalType":"address"}],"anonymous":false},{"type":"event","name":"Updated","inputs":[{"name":"_tokenId","type":"uint256","indexed":true,"internalType":"uint256"},{"name":"_oldDatas","type":"tuple[]","indexed":false,"internalType":"struct IntelligentData[]","components":[{"name":"dataDescription","type":"string","internalType":"string"},{"name":"dataHash","type":"bytes32","internalType":"bytes32"}]},{"name":"_newDatas","type":"tuple[]","indexed":false,"internalType":"struct IntelligentData[]","components":[{"name":"dataDescription","type":"string","internalType":"string"},{"name":"dataHash","type":"bytes32","internalType":"bytes32"}]}],"anonymous":false},{"type":"error","name":"AccessControlBadConfirmation","inputs":[]},{"type":"error","name":"AccessControlUnauthorizedAccount","inputs":[{"name":"account","type":"address","internalType":"address"},{"name":"neededRole","type":"bytes32","internalType":"bytes32"}]},{"type":"error","name":"EnforcedPause","inputs":[]},{"type":"error","name":"ExpectedPause","inputs":[]},{"type":"error","name":"InvalidInitialization","inputs":[]},{"type":"error","name":"NotInitializing","inputs":[]},{"type":"error","name":"ReentrancyGuardReentrantCall","inputs":[]}],"bytecode":{"object":"0x608060405234801561000f575f5ffd5b5061001e61002360201b60201c565b61019e565b5f61003261012160201b60201c565b9050805f0160089054906101000a900460ff161561007c576040517ff92ee8a900000000000000000000000000000000000000000000000000000000815260040160405180910390fd5b67ffffffffffffffff8016815f015f9054906101000a900467ffffffffffffffff1667ffffffffffffffff161461011e5767ffffffffffffffff815f015f6101000a81548167ffffffffffffffff021916908367ffffffffffffffff1602179055507fc7f505b2f371ae2175ee4913f4499e1f2633a7b5936321eed1cdaeb6115181d267ffffffffffffffff6040516101159190610185565b60405180910390a15b50565b5f5f61013161013a60201b60201c565b90508091505090565b5f7ff0c57e16840df040f15088dc2f81fe391c3923bec73e23a9662efc9c229c6a005f1b905090565b5f67ffffffffffffffff82169050919050565b61017f81610163565b82525050565b5f6020820190506101985f830184610176565b92915050565b6176aa806101ab5f395ff3fe608060405260043610610245575f3560e01c806391d1485411610138578063d547741f116100b5578063f098a7ae11610079578063f098a7ae146108ad578063f30c6a0c146108e9578063f7f1389514610911578063f851a44014610941578063fa83d14e1461096b578063ffa1ad741461099357610245565b8063d547741f146107bb578063e63ab1e9146107e3578063e915c38a1461080d578063e985e9c514610849578063ebe5229d1461088557610245565b8063a22cb465116100fc578063a22cb465146106dd578063a5cf3d1814610705578063b06548731461072f578063c3612ef714610757578063c5c4aa451461077f57610245565b806391d14854146105fd57806395d89b411461063957806397fc007c1461066357806398bd57de1461068b578063a217fddf146106b357610245565b80632b7ac3f3116101c65780636352211e1161018a5780636352211e1461051f578063704b6c021461055b57806375b238fc146105835780637adbf973146105ad5780638f15b414146105d557610245565b80632b7ac3f31461043f5780632f2ff15d1461046957806336568abe14610491578063393df216146104b95780635c975abb146104f557610245565b80630e592fdd1161020d5780630e592fdd1461033b5780630f5cbc03146103775780631aeb542f1461039f57806323b872dd146103db578063248a9ca31461040357610245565b806301ffc9a71461024957806306fdde0314610285578063081812fc146102af578063095ea7b3146102eb5780630cf7d9b314610313575b5f5ffd5b348015610254575f5ffd5b5061026f600480360381019061026a91906148ef565b6109bd565b60405161027c9190614934565b60405180910390f35b348015610290575f5ffd5b50610299610a36565b6040516102a691906149bd565b60405180910390f35b3480156102ba575f5ffd5b506102d560048036038101906102d09190614a10565b610acf565b6040516102e29190614a7a565b60405180910390f35b3480156102f6575f5ffd5b50610311600480360381019061030c9190614abd565b610b5b565b005b34801561031e575f5ffd5b5061033960048036038101906103349190614b31565b610d0e565b005b348015610346575f5ffd5b50610361600480360381019061035c9190614b6f565b610e8e565b60405161036e9190614a7a565b60405180910390f35b348015610382575f5ffd5b5061039d60048036038101906103989190614a10565b610efc565b005b3480156103aa575f5ffd5b506103c560048036038101906103c09190614a10565b611010565b6040516103d29190614c51565b60405180910390f35b3480156103e6575f5ffd5b5061040160048036038101906103fc9190614c71565b611104565b005b34801561040e575f5ffd5b5061042960048036038101906104249190614cf4565b611364565b6040516104369190614d2e565b60405180910390f35b34801561044a575f5ffd5b5061045361138e565b6040516104609190614da2565b60405180910390f35b348015610474575f5ffd5b5061048f600480360381019061048a9190614dbb565b6113bf565b005b34801561049c575f5ffd5b506104b760048036038101906104b29190614dbb565b6113e1565b005b3480156104c4575f5ffd5b506104df60048036038101906104da9190614a10565b61145c565b6040516104ec9190614f45565b60405180910390f35b348015610500575f5ffd5b506105096115ba565b6040516105169190614934565b60405180910390f35b34801561052a575f5ffd5b5061054560048036038101906105409190614a10565b6115dc565b6040516105529190614a7a565b60405180910390f35b348015610566575f5ffd5b50610581600480360381019061057c9190614b6f565b611697565b005b34801561058e575f5ffd5b506105976118e1565b6040516105a49190614d2e565b60405180910390f35b3480156105b8575f5ffd5b506105d360048036038101906105ce9190614b6f565b611905565b005b3480156105e0575f5ffd5b506105fb60048036038101906105f69190615091565b6119ea565b005b348015610608575f5ffd5b50610623600480360381019061061e9190614dbb565b611d70565b6040516106309190614934565b60405180910390f35b348015610644575f5ffd5b5061064d611de1565b60405161065a91906149bd565b60405180910390f35b34801561066e575f5ffd5b5061068960048036038101906106849190614b6f565b611e7a565b005b348015610696575f5ffd5b506106b160048036038101906106ac9190614b6f565b611f5f565b005b3480156106be575f5ffd5b506106c76120ae565b6040516106d49190614d2e565b60405180910390f35b3480156106e8575f5ffd5b5061070360048036038101906106fe9190615157565b6120b4565b005b348015610710575f5ffd5b50610719612223565b60405161072691906151a4565b60405180910390f35b34801561073a575f5ffd5b506107556004803603810190610750919061521a565b612228565b005b348015610762575f5ffd5b5061077d6004803603810190610778919061528b565b61228c565b005b34801561078a575f5ffd5b506107a560048036038101906107a091906152c9565b6125df565b6040516107b291906151a4565b60405180910390f35b3480156107c6575f5ffd5b506107e160048036038101906107dc9190614dbb565b612641565b005b3480156107ee575f5ffd5b506107f7612663565b6040516108049190614d2e565b60405180910390f35b348015610818575f5ffd5b50610833600480360381019061082e919061521a565b612687565b60405161084091906151a4565b60405180910390f35b348015610854575f5ffd5b5061086f600480360381019061086a919061534d565b6126f0565b60405161087c9190614934565b60405180910390f35b348015610890575f5ffd5b506108ab60048036038101906108a691906152c9565b612787565b005b3480156108b8575f5ffd5b506108d360048036038101906108ce9190614a10565b6127e4565b6040516108e091906154f8565b60405180910390f35b3480156108f4575f5ffd5b5061090f600480360381019061090a919061556d565b612a88565b005b61092b60048036038101906109269190615641565b612f82565b60405161093891906151a4565b60405180910390f35b34801561094c575f5ffd5b506109556131f6565b6040516109629190614a7a565b60405180910390f35b348015610976575f5ffd5b50610991600480360381019061098c919061528b565b613227565b005b34801561099e575f5ffd5b506109a7613527565b6040516109b491906149bd565b60405180910390f35b5f7f7965db0b000000000000000000000000000000000000000000000000000000007bffffffffffffffffffffffffffffffffffffffffffffffffffffffff1916827bffffffffffffffffffffffffffffffffffffffffffffffffffffffff19161480610a2f5750610a2e82613560565b5b9050919050565b6060610a406135c9565b6005018054610a4e906156fb565b80601f0160208091040260200160405190810160405280929190818152602001828054610a7a906156fb565b8015610ac55780601f10610a9c57610100808354040283529160200191610ac5565b820191905f5260205f20905b815481529060010190602001808311610aa857829003601f168201915b5050505050905090565b5f610ad9826135f0565b610b18576040517f08c379a0000000000000000000000000000000000000000000000000000000008152600401610b0f90615775565b60405180910390fd5b610b206135c9565b5f015f8381526020019081526020015f206002015f9054906101000a900473ffffffffffffffffffffffffffffffffffffffff169050919050565b5f610b65826115dc565b90508073ffffffffffffffffffffffffffffffffffffffff168373ffffffffffffffffffffffffffffffffffffffff1603610bd5576040517f08c379a0000000000000000000000000000000000000000000000000000000008152600401610bcc906157dd565b60405180910390fd5b8073ffffffffffffffffffffffffffffffffffffffff163373ffffffffffffffffffffffffffffffffffffffff161480610c155750610c1481336126f0565b5b610c54576040517f08c379a0000000000000000000000000000000000000000000000000000000008152600401610c4b90615845565b60405180910390fd5b82610c5d6135c9565b5f015f8481526020019081526020015f206002015f6101000a81548173ffffffffffffffffffffffffffffffffffffffff021916908373ffffffffffffffffffffffffffffffffffffffff160217905550818373ffffffffffffffffffffffffffffffffffffffff168273ffffffffffffffffffffffffffffffffffffffff167f8c5be1e5ebec7d5bd14f71427d1e84f3dd0314c0f7b2291e5b200ac8c7c3b92560405160405180910390a4505050565b610d166135c9565b6009015f9054906101000a900473ffffffffffffffffffffffffffffffffffffffff1673ffffffffffffffffffffffffffffffffffffffff163373ffffffffffffffffffffffffffffffffffffffff1614610da6576040517f08c379a0000000000000000000000000000000000000000000000000000000008152600401610d9d906158d3565b60405180910390fd5b5f610daf6135c9565b9050610dba836135f0565b610df9576040517f08c379a0000000000000000000000000000000000000000000000000000000008152600401610df090615775565b60405180910390fd5b60648260ff161115610e40576040517f08c379a0000000000000000000000000000000000000000000000000000000008152600401610e3790615961565b60405180910390fd5b81816004015f8581526020019081526020015f206005015f6101000a81548160ff021916908360ff16021790555042816004015f8581526020019081526020015f2060040181905550505050565b5f610e976135c9565b6002015f8373ffffffffffffffffffffffffffffffffffffffff1673ffffffffffffffffffffffffffffffffffffffff1681526020019081526020015f205f9054906101000a900473ffffffffffffffffffffffffffffffffffffffff169050919050565b5f610f056135c9565b90503373ffffffffffffffffffffffffffffffffffffffff16815f015f8481526020019081526020015f205f015f9054906101000a900473ffffffffffffffffffffffffffffffffffffffff1673ffffffffffffffffffffffffffffffffffffffff1614610fa8576040517f08c379a0000000000000000000000000000000000000000000000000000000008152600401610f9f906159c9565b60405180910390fd5b805f015f8381526020019081526020015f206001015f610fc89190614777565b813373ffffffffffffffffffffffffffffffffffffffff167f8ffc1c75991e264be106ed227e850cf04255f5017387abd70df9a9339360d15d60405160405180910390a35050565b60605f61101b6135c9565b9050611026836135f0565b611065576040517f08c379a000000000000000000000000000000000000000000000000000000000815260040161105c90615775565b60405180910390fd5b805f015f8481526020019081526020015f206001018054806020026020016040519081016040528092919081815260200182805480156110f757602002820191905f5260205f20905b815f9054906101000a900473ffffffffffffffffffffffffffffffffffffffff1673ffffffffffffffffffffffffffffffffffffffff16815260200190600101908083116110ae575b5050505050915050919050565b5f61110d6135c9565b5f015f8381526020019081526020015f20905061112a3383613662565b611169576040517f08c379a000000000000000000000000000000000000000000000000000000000815260040161116090615845565b60405180910390fd5b5f73ffffffffffffffffffffffffffffffffffffffff168373ffffffffffffffffffffffffffffffffffffffff16036111d7576040517f08c379a00000000000000000000000000000000000000000000000000000000081526004016111ce90615a31565b60405180910390fd5b8373ffffffffffffffffffffffffffffffffffffffff16815f015f9054906101000a900473ffffffffffffffffffffffffffffffffffffffff1673ffffffffffffffffffffffffffffffffffffffff1614611267576040517f08c379a000000000000000000000000000000000000000000000000000000000815260040161125e906159c9565b60405180910390fd5b82815f015f6101000a81548173ffffffffffffffffffffffffffffffffffffffff021916908373ffffffffffffffffffffffffffffffffffffffff1602179055505f816002015f6101000a81548173ffffffffffffffffffffffffffffffffffffffff021916908373ffffffffffffffffffffffffffffffffffffffff160217905550806001015f6112f99190614777565b8273ffffffffffffffffffffffffffffffffffffffff168473ffffffffffffffffffffffffffffffffffffffff167f0ea8df787dde63a7bdc34d17097adf25749a3521f660e92dabdff8d6ee91d18a8460405161135691906151a4565b60405180910390a350505050565b5f5f61136e61373e565b9050805f015f8481526020019081526020015f2060010154915050919050565b5f6113976135c9565b6007015f9054906101000a900473ffffffffffffffffffffffffffffffffffffffff16905090565b6113c882611364565b6113d181613765565b6113db8383613779565b50505050565b6113e9613871565b73ffffffffffffffffffffffffffffffffffffffff168173ffffffffffffffffffffffffffffffffffffffff161461144d576040517f6697b23200000000000000000000000000000000000000000000000000000000815260040160405180910390fd5b6114578282613878565b505050565b60605f6114676135c9565b9050611472836135f0565b6114b1576040517f08c379a00000000000000000000000000000000000000000000000000000000081526004016114a890615775565b60405180910390fd5b805f015f8481526020019081526020015f20600301805480602002602001604051908101604052809291908181526020015f905b828210156115ae578382905f5260205f2090600202016040518060400160405290815f82018054611515906156fb565b80601f0160208091040260200160405190810160405280929190818152602001828054611541906156fb565b801561158c5780601f106115635761010080835404028352916020019161158c565b820191905f5260205f20905b81548152906001019060200180831161156f57829003601f168201915b50505050508152602001600182015481525050815260200190600101906114e5565b50505050915050919050565b5f5f6115c4613970565b9050805f015f9054906101000a900460ff1691505090565b5f5f6115e66135c9565b90505f815f015f8581526020019081526020015f205f015f9054906101000a900473ffffffffffffffffffffffffffffffffffffffff1690505f73ffffffffffffffffffffffffffffffffffffffff168173ffffffffffffffffffffffffffffffffffffffff160361168d576040517f08c379a000000000000000000000000000000000000000000000000000000000815260040161168490615775565b60405180910390fd5b8092505050919050565b5f5f1b6116a381613765565b5f73ffffffffffffffffffffffffffffffffffffffff168273ffffffffffffffffffffffffffffffffffffffff1603611711576040517f08c379a000000000000000000000000000000000000000000000000000000000815260040161170890615a99565b60405180910390fd5b5f61171a6135c9565b6008015f9054906101000a900473ffffffffffffffffffffffffffffffffffffffff1690508273ffffffffffffffffffffffffffffffffffffffff168173ffffffffffffffffffffffffffffffffffffffff16146118dc578261177b6135c9565b6008015f6101000a81548173ffffffffffffffffffffffffffffffffffffffff021916908373ffffffffffffffffffffffffffffffffffffffff1602179055506117c75f5f1b84613779565b506117f27fa49807205ce4d355092ef5a8a18f56e8913cf4a201fbe287825b095693c2177584613779565b5061181d7f65d7a28e3265b37a6474929f336521b332c1681b933f6cb9f3376673440d862a84613779565b5061182a5f5f1b82613878565b506118557fa49807205ce4d355092ef5a8a18f56e8913cf4a201fbe287825b095693c2177582613878565b506118807f65d7a28e3265b37a6474929f336521b332c1681b933f6cb9f3376673440d862a82613878565b508273ffffffffffffffffffffffffffffffffffffffff168173ffffffffffffffffffffffffffffffffffffffff167f7e644d79422f17c01e4894b5f4f588d331ebfa28653d42ae832dc59e38c9798f60405160405180910390a35b505050565b7fa49807205ce4d355092ef5a8a18f56e8913cf4a201fbe287825b095693c2177581565b7fa49807205ce4d355092ef5a8a18f56e8913cf4a201fbe287825b095693c2177561192f81613765565b5f73ffffffffffffffffffffffffffffffffffffffff168273ffffffffffffffffffffffffffffffffffffffff160361199d576040517f08c379a000000000000000000000000000000000000000000000000000000000815260040161199490615a31565b60405180910390fd5b816119a66135c9565b6009015f6101000a81548173ffffffffffffffffffffffffffffffffffffffff021916908373ffffffffffffffffffffffffffffffffffffffff1602179055505050565b5f6119f3613997565b90505f815f0160089054906101000a900460ff161590505f825f015f9054906101000a900467ffffffffffffffff1690505f5f8267ffffffffffffffff16148015611a3b5750825b90505f60018367ffffffffffffffff16148015611a6e57505f3073ffffffffffffffffffffffffffffffffffffffff163b145b905081158015611a7c575080155b15611ab3576040517ff92ee8a900000000000000000000000000000000000000000000000000000000815260040160405180910390fd5b6001855f015f6101000a81548167ffffffffffffffff021916908367ffffffffffffffff1602179055508315611b00576001855f0160086101000a81548160ff0219169083151502179055505b5f73ffffffffffffffffffffffffffffffffffffffff168773ffffffffffffffffffffffffffffffffffffffff1603611b6e576040517f08c379a0000000000000000000000000000000000000000000000000000000008152600401611b6590615a31565b60405180910390fd5b5f73ffffffffffffffffffffffffffffffffffffffff168673ffffffffffffffffffffffffffffffffffffffff1603611bdc576040517f08c379a0000000000000000000000000000000000000000000000000000000008152600401611bd390615a99565b60405180910390fd5b611be46139aa565b611bec6139b4565b611bf46139c6565b611c005f5f1b87613779565b50611c2b7fa49807205ce4d355092ef5a8a18f56e8913cf4a201fbe287825b095693c2177587613779565b50611c567f65d7a28e3265b37a6474929f336521b332c1681b933f6cb9f3376673440d862a87613779565b505f611c606135c9565b905089816005019081611c739190615c4e565b5088816006019081611c859190615c4e565b5087816007015f6101000a81548173ffffffffffffffffffffffffffffffffffffffff021916908373ffffffffffffffffffffffffffffffffffffffff16021790555086816008015f6101000a81548173ffffffffffffffffffffffffffffffffffffffff021916908373ffffffffffffffffffffffffffffffffffffffff160217905550508315611d65575f855f0160086101000a81548160ff0219169083151502179055507fc7f505b2f371ae2175ee4913f4499e1f2633a7b5936321eed1cdaeb6115181d26001604051611d5c9190615d69565b60405180910390a15b505050505050505050565b5f5f611d7a61373e565b9050805f015f8581526020019081526020015f205f015f8473ffffffffffffffffffffffffffffffffffffffff1673ffffffffffffffffffffffffffffffffffffffff1681526020019081526020015f205f9054906101000a900460ff1691505092915050565b6060611deb6135c9565b6006018054611df9906156fb565b80601f0160208091040260200160405190810160405280929190818152602001828054611e25906156fb565b8015611e705780601f10611e4757610100808354040283529160200191611e70565b820191905f5260205f20905b815481529060010190602001808311611e5357829003601f168201915b5050505050905090565b7fa49807205ce4d355092ef5a8a18f56e8913cf4a201fbe287825b095693c21775611ea481613765565b5f73ffffffffffffffffffffffffffffffffffffffff168273ffffffffffffffffffffffffffffffffffffffff1603611f12576040517f08c379a0000000000000000000000000000000000000000000000000000000008152600401611f0990615a31565b60405180910390fd5b81611f1b6135c9565b6007015f6101000a81548173ffffffffffffffffffffffffffffffffffffffff021916908373ffffffffffffffffffffffffffffffffffffffff1602179055505050565b5f73ffffffffffffffffffffffffffffffffffffffff168173ffffffffffffffffffffffffffffffffffffffff1603611fcd576040517f08c379a0000000000000000000000000000000000000000000000000000000008152600401611fc490615a31565b60405180910390fd5b80611fd66135c9565b6002015f3373ffffffffffffffffffffffffffffffffffffffff1673ffffffffffffffffffffffffffffffffffffffff1681526020019081526020015f205f6101000a81548173ffffffffffffffffffffffffffffffffffffffff021916908373ffffffffffffffffffffffffffffffffffffffff1602179055508073ffffffffffffffffffffffffffffffffffffffff163373ffffffffffffffffffffffffffffffffffffffff167f57a5f7ce01affd949c0efd1484fd811d31ff5c8ca21c7006f5f4de7292f26de460405160405180910390a350565b5f5f1b81565b3373ffffffffffffffffffffffffffffffffffffffff168273ffffffffffffffffffffffffffffffffffffffff1603612122576040517f08c379a000000000000000000000000000000000000000000000000000000000815260040161211990615dcc565b60405180910390fd5b8061212b6135c9565b6001015f3373ffffffffffffffffffffffffffffffffffffffff1673ffffffffffffffffffffffffffffffffffffffff1681526020019081526020015f205f8473ffffffffffffffffffffffffffffffffffffffff1673ffffffffffffffffffffffffffffffffffffffff1681526020019081526020015f205f6101000a81548160ff0219169083151502179055508173ffffffffffffffffffffffffffffffffffffffff163373ffffffffffffffffffffffffffffffffffffffff167f17307eab39ab6107e8899845ad3d59bd9653f200f220920489ca2b5937696c31836040516122179190614934565b60405180910390a35050565b606481565b6122323384613662565b612271576040517f08c379a000000000000000000000000000000000000000000000000000000000815260040161226890615845565b60405180910390fd5b61228661227d846115dc565b858585856139d0565b50505050565b5f6122956135c9565b90503373ffffffffffffffffffffffffffffffffffffffff16815f015f8581526020019081526020015f205f015f9054906101000a900473ffffffffffffffffffffffffffffffffffffffff1673ffffffffffffffffffffffffffffffffffffffff1614612338576040517f08c379a000000000000000000000000000000000000000000000000000000000815260040161232f906159c9565b60405180910390fd5b5f73ffffffffffffffffffffffffffffffffffffffff168273ffffffffffffffffffffffffffffffffffffffff16036123a6576040517f08c379a000000000000000000000000000000000000000000000000000000000815260040161239d90615a31565b60405180910390fd5b5f815f015f8581526020019081526020015f2060010190505f5f90505f5f90505b828054905081101561253c578473ffffffffffffffffffffffffffffffffffffffff168382815481106123fd576123fc615dea565b5b905f5260205f20015f9054906101000a900473ffffffffffffffffffffffffffffffffffffffff1673ffffffffffffffffffffffffffffffffffffffff160361252f5782600184805490506124529190615e44565b8154811061246357612462615dea565b5b905f5260205f20015f9054906101000a900473ffffffffffffffffffffffffffffffffffffffff1683828154811061249e5761249d615dea565b5b905f5260205f20015f6101000a81548173ffffffffffffffffffffffffffffffffffffffff021916908373ffffffffffffffffffffffffffffffffffffffff160217905550828054806124f4576124f3615e77565b5b600190038181905f5260205f20015f6101000a81549073ffffffffffffffffffffffffffffffffffffffff021916905590556001915061253c565b80806001019150506123c7565b508061257d576040517f08c379a000000000000000000000000000000000000000000000000000000000815260040161257490615eee565b60405180910390fd5b848473ffffffffffffffffffffffffffffffffffffffff163373ffffffffffffffffffffffffffffffffffffffff167fd1662978c81e15f621e7a38524048493c6e86d91a24a29619d164bef0a8d0a9860405160405180910390a45050505050565b5f6125ea3385613662565b612629576040517f08c379a000000000000000000000000000000000000000000000000000000000815260040161262090615845565b60405180910390fd5b6126368686868686613be4565b905095945050505050565b61264a82611364565b61265381613765565b61265d8383613878565b50505050565b7f65d7a28e3265b37a6474929f336521b332c1681b933f6cb9f3376673440d862a81565b5f6126923385613662565b6126d1576040517f08c379a00000000000000000000000000000000000000000000000000000000081526004016126c890615845565b60405180910390fd5b6126e66126dd856115dc565b86868686613be4565b9050949350505050565b5f6126f96135c9565b6001015f8473ffffffffffffffffffffffffffffffffffffffff1673ffffffffffffffffffffffffffffffffffffffff1681526020019081526020015f205f8373ffffffffffffffffffffffffffffffffffffffff1673ffffffffffffffffffffffffffffffffffffffff1681526020019081526020015f205f9054906101000a900460ff16905092915050565b6127913384613662565b6127d0576040517f08c379a00000000000000000000000000000000000000000000000000000000081526004016127c790615845565b60405180910390fd5b6127dd85858585856139d0565b5050505050565b6127ec614795565b5f6127f56135c9565b9050612800836135f0565b61283f576040517f08c379a000000000000000000000000000000000000000000000000000000000815260040161283690615775565b60405180910390fd5b806004015f8481526020019081526020015f206040518060c00160405290815f8201805461286c906156fb565b80601f0160208091040260200160405190810160405280929190818152602001828054612898906156fb565b80156128e35780601f106128ba576101008083540402835291602001916128e3565b820191905f5260205f20905b8154815290600101906020018083116128c657829003601f168201915b505050505081526020016001820180546128fc906156fb565b80601f0160208091040260200160405190810160405280929190818152602001828054612928906156fb565b80156129735780601f1061294a57610100808354040283529160200191612973565b820191905f5260205f20905b81548152906001019060200180831161295657829003601f168201915b5050505050815260200160028201805480602002602001604051908101604052809291908181526020015f905b82821015612a48578382905f5260205f200180546129bd906156fb565b80601f01602080910402602001604051908101604052809291908181526020018280546129e9906156fb565b8015612a345780601f10612a0b57610100808354040283529160200191612a34565b820191905f5260205f20905b815481529060010190602001808311612a1757829003601f168201915b5050505050815260200190600101906129a0565b5050505081526020016003820154815260200160048201548152602001600582015f9054906101000a900460ff1660ff1660ff1681525050915050919050565b5f8282905011612acd576040517f08c379a0000000000000000000000000000000000000000000000000000000008152600401612ac490615f56565b60405180910390fd5b5f612ad66135c9565b90503373ffffffffffffffffffffffffffffffffffffffff16815f015f8681526020019081526020015f205f015f9054906101000a900473ffffffffffffffffffffffffffffffffffffffff1673ffffffffffffffffffffffffffffffffffffffff1614612b79576040517f08c379a0000000000000000000000000000000000000000000000000000000008152600401612b70906159c9565b60405180910390fd5b5f815f015f8681526020019081526020015f2060010190506064848490508280549050612ba69190615f74565b1115612be7576040517f08c379a0000000000000000000000000000000000000000000000000000000008152600401612bde90615ff1565b60405180910390fd5b5f5f90505b84849050811015612f7a575f73ffffffffffffffffffffffffffffffffffffffff16858583818110612c2157612c20615dea565b5b9050602002016020810190612c369190614b6f565b73ffffffffffffffffffffffffffffffffffffffff1603612c8c576040517f08c379a0000000000000000000000000000000000000000000000000000000008152600401612c8390616059565b60405180910390fd5b5f5f90505f5f90505b8380549050811015612d4b57868684818110612cb457612cb3615dea565b5b9050602002016020810190612cc99190614b6f565b73ffffffffffffffffffffffffffffffffffffffff16848281548110612cf257612cf1615dea565b5b905f5260205f20015f9054906101000a900473ffffffffffffffffffffffffffffffffffffffff1673ffffffffffffffffffffffffffffffffffffffff1603612d3e5760019150612d4b565b8080600101915050612c95565b508015612d8d576040517f08c379a0000000000000000000000000000000000000000000000000000000008152600401612d84906160c1565b60405180910390fd5b5f5f90505b82811015612e6357868684818110612dad57612dac615dea565b5b9050602002016020810190612dc29190614b6f565b73ffffffffffffffffffffffffffffffffffffffff16878783818110612deb57612dea615dea565b5b9050602002016020810190612e009190614b6f565b73ffffffffffffffffffffffffffffffffffffffff1603612e56576040517f08c379a0000000000000000000000000000000000000000000000000000000008152600401612e4d90616129565b60405180910390fd5b8080600101915050612d92565b5082868684818110612e7857612e77615dea565b5b9050602002016020810190612e8d9190614b6f565b908060018154018082558091505060019003905f5260205f20015f9091909190916101000a81548173ffffffffffffffffffffffffffffffffffffffff021916908373ffffffffffffffffffffffffffffffffffffffff16021790555086868684818110612efe57612efd615dea565b5b9050602002016020810190612f139190614b6f565b73ffffffffffffffffffffffffffffffffffffffff163373ffffffffffffffffffffffffffffffffffffffff167f8a1c60ca1a16acd72d841a74fa5905de3938132b0b2ff6cb385a7e69af345fc960405160405180910390a4508080600101915050612bec565b505050505050565b5f5f73ffffffffffffffffffffffffffffffffffffffff168373ffffffffffffffffffffffffffffffffffffffff1603612ff1576040517f08c379a0000000000000000000000000000000000000000000000000000000008152600401612fe890615a31565b60405180910390fd5b5f8585905011613036576040517f08c379a000000000000000000000000000000000000000000000000000000000815260040161302d90616191565b60405180910390fd5b5f61303f6135c9565b9050806003015f815480929190613055906161af565b9190505591505f815f015f8481526020019081526020015f20905084815f015f6101000a81548173ffffffffffffffffffffffffffffffffffffffff021916908373ffffffffffffffffffffffffffffffffffffffff1602179055505f816002015f6101000a81548173ffffffffffffffffffffffffffffffffffffffff021916908373ffffffffffffffffffffffffffffffffffffffff1602179055505f5f90505b8787905081101561316d578160030188888381811061311a57613119615dea565b5b905060200281019061312c9190616202565b908060018154018082558091505060019003905f5260205f2090600202015f90919091909150818161315e9190616493565b505080806001019150506130f8565b5083826004015f8581526020019081526020015f20818161318e91906169da565b9050508473ffffffffffffffffffffffffffffffffffffffff163373ffffffffffffffffffffffffffffffffffffffff16847f5758c4c0a4d007ca9768a0a574eedc39af88c4423f4ad0f8895b1b8fd1e7613360405160405180910390a45050949350505050565b5f6131ff6135c9565b6008015f9054906101000a900473ffffffffffffffffffffffffffffffffffffffff16905090565b5f73ffffffffffffffffffffffffffffffffffffffff168173ffffffffffffffffffffffffffffffffffffffff1603613295576040517f08c379a000000000000000000000000000000000000000000000000000000000815260040161328c90615a31565b60405180910390fd5b5f61329e6135c9565b90503373ffffffffffffffffffffffffffffffffffffffff16815f015f8581526020019081526020015f205f015f9054906101000a900473ffffffffffffffffffffffffffffffffffffffff1673ffffffffffffffffffffffffffffffffffffffff1614613341576040517f08c379a0000000000000000000000000000000000000000000000000000000008152600401613338906159c9565b60405180910390fd5b5f815f015f8581526020019081526020015f20600101905060648180549050106133a0576040517f08c379a000000000000000000000000000000000000000000000000000000000815260040161339790615ff1565b60405180910390fd5b5f5f90505b8180549050811015613466578373ffffffffffffffffffffffffffffffffffffffff168282815481106133db576133da615dea565b5b905f5260205f20015f9054906101000a900473ffffffffffffffffffffffffffffffffffffffff1673ffffffffffffffffffffffffffffffffffffffff1603613459576040517f08c379a000000000000000000000000000000000000000000000000000000000815260040161345090616a32565b60405180910390fd5b80806001019150506133a5565b508083908060018154018082558091505060019003905f5260205f20015f9091909190916101000a81548173ffffffffffffffffffffffffffffffffffffffff021916908373ffffffffffffffffffffffffffffffffffffffff160217905550838373ffffffffffffffffffffffffffffffffffffffff163373ffffffffffffffffffffffffffffffffffffffff167f8a1c60ca1a16acd72d841a74fa5905de3938132b0b2ff6cb385a7e69af345fc960405160405180910390a450505050565b6040518060400160405280600581526020017f322e302e3000000000000000000000000000000000000000000000000000000081525081565b5f7f01ffc9a7000000000000000000000000000000000000000000000000000000007bffffffffffffffffffffffffffffffffffffffffffffffffffffffff1916827bffffffffffffffffffffffffffffffffffffffffffffffffffffffff1916149050919050565b5f7f4aa80aaafbe0e5fe3fe1aa97f3c1f8c65d61f96ef1aab2b448154f4e07594600905090565b5f5f73ffffffffffffffffffffffffffffffffffffffff166136106135c9565b5f015f8481526020019081526020015f205f015f9054906101000a900473ffffffffffffffffffffffffffffffffffffffff1673ffffffffffffffffffffffffffffffffffffffff1614159050919050565b5f61366c826135f0565b6136ab576040517f08c379a00000000000000000000000000000000000000000000000000000000081526004016136a290615775565b60405180910390fd5b5f6136b5836115dc565b90508073ffffffffffffffffffffffffffffffffffffffff168473ffffffffffffffffffffffffffffffffffffffff16148061372457508373ffffffffffffffffffffffffffffffffffffffff1661370c84610acf565b73ffffffffffffffffffffffffffffffffffffffff16145b80613735575061373481856126f0565b5b91505092915050565b5f7f02dd7bc7dec4dceedda775e58dd541e08a116c6c53815c0bd028192f7b626800905090565b61377681613771613871565b613dd2565b50565b5f5f61378361373e565b905061378f8484611d70565b613866576001815f015f8681526020019081526020015f205f015f8573ffffffffffffffffffffffffffffffffffffffff1673ffffffffffffffffffffffffffffffffffffffff1681526020019081526020015f205f6101000a81548160ff021916908315150217905550613802613871565b73ffffffffffffffffffffffffffffffffffffffff168373ffffffffffffffffffffffffffffffffffffffff16857f2f8788117e7eff1d82e926ec794901d17c78024a50270940304540a733656f0d60405160405180910390a4600191505061386b565b5f9150505b92915050565b5f33905090565b5f5f61388261373e565b905061388e8484611d70565b15613965575f815f015f8681526020019081526020015f205f015f8573ffffffffffffffffffffffffffffffffffffffff1673ffffffffffffffffffffffffffffffffffffffff1681526020019081526020015f205f6101000a81548160ff021916908315150217905550613901613871565b73ffffffffffffffffffffffffffffffffffffffff168373ffffffffffffffffffffffffffffffffffffffff16857ff6391f5c32d9c69d2a47ea670b442974b53935d1edc7fd64eb21e047a839171b60405160405180910390a4600191505061396a565b5f9150505b92915050565b5f7fcd5ed15c6e187e77e9aee88184c21f4f2182ab5827cb3b7e07fbedcd63f03300905090565b5f5f6139a1613e23565b90508091505090565b6139b2613e4c565b565b6139bc613e4c565b6139c4613e8c565b565b6139ce613e4c565b565b5f6139d96135c9565b90505f5f6139ea8888888888613eab565b915091505f835f015f8881526020019081526020015f20905087815f015f6101000a81548173ffffffffffffffffffffffffffffffffffffffff021916908373ffffffffffffffffffffffffffffffffffffffff1602179055505f816002015f6101000a81548173ffffffffffffffffffffffffffffffffffffffff021916908373ffffffffffffffffffffffffffffffffffffffff160217905550806001015f613a959190614777565b806003015f613aa491906147cb565b5f5f90505b8251811015613b245781600301838281518110613ac957613ac8615dea565b5b6020026020010151908060018154018082558091505060019003905f5260205f2090600202015f909190919091505f820151815f019081613b0a9190615c4e565b506020820151816001015550508080600101915050613aa9565b508773ffffffffffffffffffffffffffffffffffffffff168973ffffffffffffffffffffffffffffffffffffffff167f0ea8df787dde63a7bdc34d17097adf25749a3521f660e92dabdff8d6ee91d18a89604051613b8291906151a4565b60405180910390a3868873ffffffffffffffffffffffffffffffffffffffff167f77ac1306adadb66d303dd0baa0534083040b337a1212922215a3ccbaf6fec56c85604051613bd19190616b5d565b60405180910390a3505050505050505050565b5f5f613bee6135c9565b90505f5f613bff8989898989613eab565b915091505f836003015f815480929190613c18906161af565b9190505590505f845f015f8381526020019081526020015f20905089815f015f6101000a81548173ffffffffffffffffffffffffffffffffffffffff021916908373ffffffffffffffffffffffffffffffffffffffff1602179055505f816002015f6101000a81548173ffffffffffffffffffffffffffffffffffffffff021916908373ffffffffffffffffffffffffffffffffffffffff1602179055505f5f90505b8351811015613d365781600301848281518110613cdb57613cda615dea565b5b6020026020010151908060018154018082558091505060019003905f5260205f2090600202015f909190919091505f820151815f019081613d1c9190615c4e565b506020820151816001015550508080600101915050613cbb565b5081897f40b442ee2bb535802063305b95f127b5101e5fce261a5dec9379683eaaad8cdb8d8d604051613d6a929190616b7d565b60405180910390a3818a73ffffffffffffffffffffffffffffffffffffffff167f77ac1306adadb66d303dd0baa0534083040b337a1212922215a3ccbaf6fec56c86604051613db99190616b5d565b60405180910390a3819550505050505095945050505050565b613ddc8282611d70565b613e1f5780826040517fe2517d3f000000000000000000000000000000000000000000000000000000008152600401613e16929190616ba4565b60405180910390fd5b5050565b5f7ff0c57e16840df040f15088dc2f81fe391c3923bec73e23a9662efc9c229c6a005f1b905090565b613e54614610565b613e8a576040517fd7e6bcf800000000000000000000000000000000000000000000000000000000815260040160405180910390fd5b565b613e94613e4c565b5f613e9d61462e565b90506001815f018190555050565b6060805f613eb76135c9565b90505f73ffffffffffffffffffffffffffffffffffffffff168773ffffffffffffffffffffffffffffffffffffffff1603613f27576040517f08c379a0000000000000000000000000000000000000000000000000000000008152600401613f1e90615a31565b60405180910390fd5b8773ffffffffffffffffffffffffffffffffffffffff16815f015f8881526020019081526020015f205f015f9054906101000a900473ffffffffffffffffffffffffffffffffffffffff1673ffffffffffffffffffffffffffffffffffffffff1614613fc8576040517f08c379a0000000000000000000000000000000000000000000000000000000008152600401613fbf906159c9565b60405180910390fd5b5f858590501161400d576040517f08c379a000000000000000000000000000000000000000000000000000000000815260040161400490616c15565b60405180910390fd5b5f816007015f9054906101000a900473ffffffffffffffffffffffffffffffffffffffff1673ffffffffffffffffffffffffffffffffffffffff1663df63011687876040518363ffffffff1660e01b815260040161406c92919061709c565b5f604051808303815f875af1158015614087573d5f5f3e3d5ffd5b505050506040513d5f823e3d601f19601f820116820180604052508101906140af91906173bd565b9050815f015f8881526020019081526020015f206003018054905081511461410c576040517f08c379a00000000000000000000000000000000000000000000000000000000081526004016141039061744e565b60405180910390fd5b805167ffffffffffffffff81111561412757614126614f6d565b5b60405190808252806020026020018201604052801561415a57816020015b60608152602001906001900390816141455790505b509350805167ffffffffffffffff81111561417857614177614f6d565b5b6040519080825280602002602001820160405280156141b157816020015b61419e6147ec565b8152602001906001900390816141965790505b5092505f5f90505b815181101561460357825f015f8981526020019081526020015f2060030181815481106141e9576141e8615dea565b5b905f5260205f2090600202016001015482828151811061420c5761420b615dea565b5b60200260200101515f015114614257576040517f08c379a000000000000000000000000000000000000000000000000000000000815260040161424e906174b6565b60405180910390fd5b826002015f8a73ffffffffffffffffffffffffffffffffffffffff1673ffffffffffffffffffffffffffffffffffffffff1681526020019081526020015f205f9054906101000a900473ffffffffffffffffffffffffffffffffffffffff1673ffffffffffffffffffffffffffffffffffffffff168282815181106142df576142de615dea565b5b602002602001015160a0015173ffffffffffffffffffffffffffffffffffffffff16148061435657508873ffffffffffffffffffffffffffffffffffffffff1682828151811061433257614331615dea565b5b602002602001015160a0015173ffffffffffffffffffffffffffffffffffffffff16145b614395576040517f08c379a000000000000000000000000000000000000000000000000000000000815260040161438c9061751e565b60405180910390fd5b5f8282815181106143a9576143a8615dea565b5b60200260200101516080015190505f8383815181106143cb576143ca615dea565b5b60200260200101516060015190505f825103614461575f6143eb82614655565b90508b73ffffffffffffffffffffffffffffffffffffffff168173ffffffffffffffffffffffffffffffffffffffff161461445b576040517f08c379a000000000000000000000000000000000000000000000000000000000815260040161445290617586565b60405180910390fd5b506144ab565b61446b81836146b0565b6144aa576040517f08c379a00000000000000000000000000000000000000000000000000000000081526004016144a1906175ee565b60405180910390fd5b5b8383815181106144be576144bd615dea565b5b6020026020010151604001518784815181106144dd576144dc615dea565b5b60200260200101819052506040518060400160405280865f015f8d81526020019081526020015f20600301858154811061451a57614519615dea565b5b905f5260205f2090600202015f018054614533906156fb565b80601f016020809104026020016040519081016040528092919081815260200182805461455f906156fb565b80156145aa5780601f10614581576101008083540402835291602001916145aa565b820191905f5260205f20905b81548152906001019060200180831161458d57829003601f168201915b505050505081526020018585815181106145c7576145c6615dea565b5b6020026020010151602001518152508684815181106145e9576145e8615dea565b5b6020026020010181905250505080806001019150506141b9565b5050509550959350505050565b5f614619613997565b5f0160089054906101000a900460ff16905090565b5f7f9b779b17422d0df92223018b32b4d1fa46e071723d6817e2486d003becc55f00905090565b5f604082511461469a576040517f08c379a000000000000000000000000000000000000000000000000000000000815260040161469190617656565b60405180910390fd5b5f82805190602001209050805f1c915050919050565b5f81518351146146c2575f9050614771565b5f5f90505b835181101561476b578281815181106146e3576146e2615dea565b5b602001015160f81c60f81b7effffffffffffffffffffffffffffffffffffffffffffffffffffffffffffff191684828151811061472357614722615dea565b5b602001015160f81c60f81b7effffffffffffffffffffffffffffffffffffffffffffffffffffffffffffff19161461475e575f915050614771565b80806001019150506146c7565b50600190505b92915050565b5080545f8255905f5260205f20908101906147929190614805565b50565b6040518060c001604052806060815260200160608152602001606081526020015f81526020015f81526020015f60ff1681525090565b5080545f8255600202905f5260205f20908101906147e99190614820565b50565b6040518060400160405280606081526020015f81525090565b5b8082111561481c575f815f905550600101614806565b5090565b5b80821115614848575f5f82015f614838919061484c565b600182015f905550600201614821565b5090565b508054614858906156fb565b5f825580601f106148695750614886565b601f0160209004905f5260205f20908101906148859190614805565b5b50565b5f604051905090565b5f5ffd5b5f5ffd5b5f7fffffffff0000000000000000000000000000000000000000000000000000000082169050919050565b6148ce8161489a565b81146148d8575f5ffd5b50565b5f813590506148e9816148c5565b92915050565b5f6020828403121561490457614903614892565b5b5f614911848285016148db565b91505092915050565b5f8115159050919050565b61492e8161491a565b82525050565b5f6020820190506149475f830184614925565b92915050565b5f81519050919050565b5f82825260208201905092915050565b8281835e5f83830152505050565b5f601f19601f8301169050919050565b5f61498f8261494d565b6149998185614957565b93506149a9818560208601614967565b6149b281614975565b840191505092915050565b5f6020820190508181035f8301526149d58184614985565b905092915050565b5f819050919050565b6149ef816149dd565b81146149f9575f5ffd5b50565b5f81359050614a0a816149e6565b92915050565b5f60208284031215614a2557614a24614892565b5b5f614a32848285016149fc565b91505092915050565b5f73ffffffffffffffffffffffffffffffffffffffff82169050919050565b5f614a6482614a3b565b9050919050565b614a7481614a5a565b82525050565b5f602082019050614a8d5f830184614a6b565b92915050565b614a9c81614a5a565b8114614aa6575f5ffd5b50565b5f81359050614ab781614a93565b92915050565b5f5f60408385031215614ad357614ad2614892565b5b5f614ae085828601614aa9565b9250506020614af1858286016149fc565b9150509250929050565b5f60ff82169050919050565b614b1081614afb565b8114614b1a575f5ffd5b50565b5f81359050614b2b81614b07565b92915050565b5f5f60408385031215614b4757614b46614892565b5b5f614b54858286016149fc565b9250506020614b6585828601614b1d565b9150509250929050565b5f60208284031215614b8457614b83614892565b5b5f614b9184828501614aa9565b91505092915050565b5f81519050919050565b5f82825260208201905092915050565b5f819050602082019050919050565b614bcc81614a5a565b82525050565b5f614bdd8383614bc3565b60208301905092915050565b5f602082019050919050565b5f614bff82614b9a565b614c098185614ba4565b9350614c1483614bb4565b805f5b83811015614c44578151614c2b8882614bd2565b9750614c3683614be9565b925050600181019050614c17565b5085935050505092915050565b5f6020820190508181035f830152614c698184614bf5565b905092915050565b5f5f5f60608486031215614c8857614c87614892565b5b5f614c9586828701614aa9565b9350506020614ca686828701614aa9565b9250506040614cb7868287016149fc565b9150509250925092565b5f819050919050565b614cd381614cc1565b8114614cdd575f5ffd5b50565b5f81359050614cee81614cca565b92915050565b5f60208284031215614d0957614d08614892565b5b5f614d1684828501614ce0565b91505092915050565b614d2881614cc1565b82525050565b5f602082019050614d415f830184614d1f565b92915050565b5f819050919050565b5f614d6a614d65614d6084614a3b565b614d47565b614a3b565b9050919050565b5f614d7b82614d50565b9050919050565b5f614d8c82614d71565b9050919050565b614d9c81614d82565b82525050565b5f602082019050614db55f830184614d93565b92915050565b5f5f60408385031215614dd157614dd0614892565b5b5f614dde85828601614ce0565b9250506020614def85828601614aa9565b9150509250929050565b5f81519050919050565b5f82825260208201905092915050565b5f819050602082019050919050565b5f82825260208201905092915050565b5f614e3c8261494d565b614e468185614e22565b9350614e56818560208601614967565b614e5f81614975565b840191505092915050565b614e7381614cc1565b82525050565b5f604083015f8301518482035f860152614e938282614e32565b9150506020830151614ea86020860182614e6a565b508091505092915050565b5f614ebe8383614e79565b905092915050565b5f602082019050919050565b5f614edc82614df9565b614ee68185614e03565b935083602082028501614ef885614e13565b805f5b85811015614f335784840389528151614f148582614eb3565b9450614f1f83614ec6565b925060208a01995050600181019050614efb565b50829750879550505050505092915050565b5f6020820190508181035f830152614f5d8184614ed2565b905092915050565b5f5ffd5b5f5ffd5b7f4e487b71000000000000000000000000000000000000000000000000000000005f52604160045260245ffd5b614fa382614975565b810181811067ffffffffffffffff82111715614fc257614fc1614f6d565b5b80604052505050565b5f614fd4614889565b9050614fe08282614f9a565b919050565b5f67ffffffffffffffff821115614fff57614ffe614f6d565b5b61500882614975565b9050602081019050919050565b828183375f83830152505050565b5f61503561503084614fe5565b614fcb565b90508281526020810184848401111561505157615050614f69565b5b61505c848285615015565b509392505050565b5f82601f83011261507857615077614f65565b5b8135615088848260208601615023565b91505092915050565b5f5f5f5f608085870312156150a9576150a8614892565b5b5f85013567ffffffffffffffff8111156150c6576150c5614896565b5b6150d287828801615064565b945050602085013567ffffffffffffffff8111156150f3576150f2614896565b5b6150ff87828801615064565b935050604061511087828801614aa9565b925050606061512187828801614aa9565b91505092959194509250565b6151368161491a565b8114615140575f5ffd5b50565b5f813590506151518161512d565b92915050565b5f5f6040838503121561516d5761516c614892565b5b5f61517a85828601614aa9565b925050602061518b85828601615143565b9150509250929050565b61519e816149dd565b82525050565b5f6020820190506151b75f830184615195565b92915050565b5f5ffd5b5f5ffd5b5f5f83601f8401126151da576151d9614f65565b5b8235905067ffffffffffffffff8111156151f7576151f66151bd565b5b602083019150836020820283011115615213576152126151c1565b5b9250929050565b5f5f5f5f6060858703121561523257615231614892565b5b5f61523f87828801614aa9565b9450506020615250878288016149fc565b935050604085013567ffffffffffffffff81111561527157615270614896565b5b61527d878288016151c5565b925092505092959194509250565b5f5f604083850312156152a1576152a0614892565b5b5f6152ae858286016149fc565b92505060206152bf85828601614aa9565b9150509250929050565b5f5f5f5f5f608086880312156152e2576152e1614892565b5b5f6152ef88828901614aa9565b955050602061530088828901614aa9565b9450506040615311888289016149fc565b935050606086013567ffffffffffffffff81111561533257615331614896565b5b61533e888289016151c5565b92509250509295509295909350565b5f5f6040838503121561536357615362614892565b5b5f61537085828601614aa9565b925050602061538185828601614aa9565b9150509250929050565b5f81519050919050565b5f82825260208201905092915050565b5f819050602082019050919050565b5f6153bf8383614e32565b905092915050565b5f602082019050919050565b5f6153dd8261538b565b6153e78185615395565b9350836020820285016153f9856153a5565b805f5b85811015615434578484038952815161541585826153b4565b9450615420836153c7565b925060208a019950506001810190506153fc565b50829750879550505050505092915050565b61544f816149dd565b82525050565b61545e81614afb565b82525050565b5f60c083015f8301518482035f86015261547e8282614e32565b915050602083015184820360208601526154988282614e32565b915050604083015184820360408601526154b282826153d3565b91505060608301516154c76060860182614e6a565b5060808301516154da6080860182615446565b5060a08301516154ed60a0860182615455565b508091505092915050565b5f6020820190508181035f8301526155108184615464565b905092915050565b5f5f83601f84011261552d5761552c614f65565b5b8235905067ffffffffffffffff81111561554a576155496151bd565b5b602083019150836020820283011115615566576155656151c1565b5b9250929050565b5f5f5f6040848603121561558457615583614892565b5b5f615591868287016149fc565b935050602084013567ffffffffffffffff8111156155b2576155b1614896565b5b6155be86828701615518565b92509250509250925092565b5f5f83601f8401126155df576155de614f65565b5b8235905067ffffffffffffffff8111156155fc576155fb6151bd565b5b602083019150836020820283011115615618576156176151c1565b5b9250929050565b5f5ffd5b5f60c082840312156156385761563761561f565b5b81905092915050565b5f5f5f5f6060858703121561565957615658614892565b5b5f85013567ffffffffffffffff81111561567657615675614896565b5b615682878288016155ca565b9450945050602061569587828801614aa9565b925050604085013567ffffffffffffffff8111156156b6576156b5614896565b5b6156c287828801615623565b91505092959194509250565b7f4e487b71000000000000000000000000000000000000000000000000000000005f52602260045260245ffd5b5f600282049050600182168061571257607f821691505b602082108103615725576157246156ce565b5b50919050565b7f546f6b656e20646f6573206e6f742065786973740000000000000000000000005f82015250565b5f61575f601483614957565b915061576a8261572b565b602082019050919050565b5f6020820190508181035f83015261578c81615753565b9050919050565b7f417070726f76616c20746f2063757272656e74206f776e6572000000000000005f82015250565b5f6157c7601983614957565b91506157d282615793565b602082019050919050565b5f6020820190508181035f8301526157f4816157bb565b9050919050565b7f4e6f7420617574686f72697a65640000000000000000000000000000000000005f82015250565b5f61582f600e83614957565b915061583a826157fb565b602082019050919050565b5f6020820190508181035f83015261585c81615823565b9050919050565b7f4f6e6c79206f7261636c652063616e2063616c6c20746869732066756e6374695f8201527f6f6e000000000000000000000000000000000000000000000000000000000000602082015250565b5f6158bd602283614957565b91506158c882615863565b604082019050919050565b5f6020820190508181035f8301526158ea816158b1565b9050919050565b7f48617070696e6573732073636f72652063616e6e6f74206578636565642031305f8201527f3000000000000000000000000000000000000000000000000000000000000000602082015250565b5f61594b602183614957565b9150615956826158f1565b604082019050919050565b5f6020820190508181035f8301526159788161593f565b9050919050565b7f4e6f74206f776e657200000000000000000000000000000000000000000000005f82015250565b5f6159b3600983614957565b91506159be8261597f565b602082019050919050565b5f6020820190508181035f8301526159e0816159a7565b9050919050565b7f5a65726f206164647265737300000000000000000000000000000000000000005f82015250565b5f615a1b600c83614957565b9150615a26826159e7565b602082019050919050565b5f6020820190508181035f830152615a4881615a0f565b9050919050565b7f496e76616c69642061646d696e206164647265737300000000000000000000005f82015250565b5f615a83601583614957565b9150615a8e82615a4f565b602082019050919050565b5f6020820190508181035f830152615ab081615a77565b9050919050565b5f819050815f5260205f209050919050565b5f6020601f8301049050919050565b5f82821b905092915050565b5f60088302615b137fffffffffffffffffffffffffffffffffffffffffffffffffffffffffffffffff82615ad8565b615b1d8683615ad8565b95508019841693508086168417925050509392505050565b5f615b4f615b4a615b45846149dd565b614d47565b6149dd565b9050919050565b5f819050919050565b615b6883615b35565b615b7c615b7482615b56565b848454615ae4565b825550505050565b5f5f905090565b615b93615b84565b615b9e818484615b5f565b505050565b5b81811015615bc157615bb65f82615b8b565b600181019050615ba4565b5050565b601f821115615c0657615bd781615ab7565b615be084615ac9565b81016020851015615bef578190505b615c03615bfb85615ac9565b830182615ba3565b50505b505050565b5f82821c905092915050565b5f615c265f1984600802615c0b565b1980831691505092915050565b5f615c3e8383615c17565b9150826002028217905092915050565b615c578261494d565b67ffffffffffffffff811115615c7057615c6f614f6d565b5b615c7a82546156fb565b615c85828285615bc5565b5f60209050601f831160018114615cb6575f8415615ca4578287015190505b615cae8582615c33565b865550615d15565b601f198416615cc486615ab7565b5f5b82811015615ceb57848901518255600182019150602085019450602081019050615cc6565b86831015615d085784890151615d04601f891682615c17565b8355505b6001600288020188555050505b505050505050565b5f819050919050565b5f67ffffffffffffffff82169050919050565b5f615d53615d4e615d4984615d1d565b614d47565b615d26565b9050919050565b615d6381615d39565b82525050565b5f602082019050615d7c5f830184615d5a565b92915050565b7f417070726f766520746f2063616c6c65720000000000000000000000000000005f82015250565b5f615db6601183614957565b9150615dc182615d82565b602082019050919050565b5f6020820190508181035f830152615de381615daa565b9050919050565b7f4e487b71000000000000000000000000000000000000000000000000000000005f52603260045260245ffd5b7f4e487b71000000000000000000000000000000000000000000000000000000005f52601160045260245ffd5b5f615e4e826149dd565b9150615e59836149dd565b9250828203905081811115615e7157615e70615e17565b5b92915050565b7f4e487b71000000000000000000000000000000000000000000000000000000005f52603160045260245ffd5b7f55736572206e6f7420617574686f72697a6564000000000000000000000000005f82015250565b5f615ed8601383614957565b9150615ee382615ea4565b602082019050919050565b5f6020820190508181035f830152615f0581615ecc565b9050919050565b7f456d7074792075736572732061727261790000000000000000000000000000005f82015250565b5f615f40601183614957565b9150615f4b82615f0c565b602082019050919050565b5f6020820190508181035f830152615f6d81615f34565b9050919050565b5f615f7e826149dd565b9150615f89836149dd565b9250828201905080821115615fa157615fa0615e17565b5b92915050565b7f546f6f206d616e7920617574686f72697a6564207573657273000000000000005f82015250565b5f615fdb601983614957565b9150615fe682615fa7565b602082019050919050565b5f6020820190508181035f83015261600881615fcf565b9050919050565b7f5a65726f206164647265737320696e20757365727300000000000000000000005f82015250565b5f616043601583614957565b915061604e8261600f565b602082019050919050565b5f6020820190508181035f83015261607081616037565b9050919050565b7f5573657220616c726561647920617574686f72697a65640000000000000000005f82015250565b5f6160ab601783614957565b91506160b682616077565b602082019050919050565b5f6020820190508181035f8301526160d88161609f565b9050919050565b7f4475706c6963617465207573657220696e2062617463680000000000000000005f82015250565b5f616113601783614957565b915061611e826160df565b602082019050919050565b5f6020820190508181035f83015261614081616107565b9050919050565b7f456d7074792064617461206172726179000000000000000000000000000000005f82015250565b5f61617b601083614957565b915061618682616147565b602082019050919050565b5f6020820190508181035f8301526161a88161616f565b9050919050565b5f6161b9826149dd565b91507fffffffffffffffffffffffffffffffffffffffffffffffffffffffffffffffff82036161eb576161ea615e17565b5b600182019050919050565b5f5ffd5b5f5ffd5b5f5ffd5b5f8235600160400383360303811261621d5761621c6161f6565b5b80830191505092915050565b7f4e487b71000000000000000000000000000000000000000000000000000000005f525f60045260245ffd5b5f5f83356001602003843603038112616271576162706161f6565b5b80840192508235915067ffffffffffffffff821115616293576162926161fa565b5b6020830192506001820236038313156162af576162ae6161fe565b5b509250929050565b5f82905092915050565b6162cb83836162b7565b67ffffffffffffffff8111156162e4576162e3614f6d565b5b6162ee82546156fb565b6162f9828285615bc5565b5f601f831160018114616326575f8415616314578287013590505b61631e8582615c33565b865550616385565b601f19841661633486615ab7565b5f5b8281101561635b57848901358255600182019150602085019450602081019050616336565b868310156163785784890135616374601f891682615c17565b8355505b6001600288020188555050505b50505050505050565b6163998383836162c1565b505050565b5f81356163aa81614cca565b80915050919050565b5f815f1b9050919050565b5f7fffffffffffffffffffffffffffffffffffffffffffffffffffffffffffffffff6163e9846163b3565b9350801983169250808416831791505092915050565b5f61640982614cc1565b9050919050565b5f815f1c9050919050565b5f61642582616410565b9050919050565b616435826163ff565b6164486164418261641b565b83546163be565b8255505050565b5f81015f830161645f8185616255565b61646a81838661638e565b505050506001810160208301806164808161639e565b905061648c818461642c565b5050505050565b61649d828261644f565b5050565b5f5f833560016020038436030381126164bd576164bc6161f6565b5b80840192508235915067ffffffffffffffff8211156164df576164de6161fa565b5b6020830192506020820236038313156164fb576164fa6161fe565b5b509250929050565b5f819050919050565b5f81549050919050565b5f8190506001806001038301049050919050565b5f819050815f5260205f209050919050565b61656c7fffffffffffffffffffffffffffffffffffffffffffffffffffffffffffffffff83602003600802615c0b565b815481168255505050565b61658081615ab7565b61658b838254615c33565b8083555f825550505050565b602084105f81146165f157601f8411600181146165bf576165b88685615c33565b83556165eb565b6165c883615ab7565b6165df6165d487615ac9565b820160018301615ba3565b6165e98785616577565b505b5061663e565b6165fa82615ab7565b61660386615ac9565b8101601f8716801561661d5761661c816001840361653c565b5b61663161662988615ac9565b840183615ba3565b6001886002021785555050505b5050505050565b6801000000000000000084111561665f5761665e614f6d565b5b602083105f81146166a857602085105f81146166865761667f8685615c33565b83556166a2565b8360ff191693508361669784615ab7565b556001866002020183555b506166b2565b6001856002020182555b5050505050565b80546166c4816156fb565b808411156166d9576166d884828486616645565b5b808410156166ee576166ed84828486616597565b5b50505050565b81811015616711576167065f82615b8b565b6001810190506166f4565b5050565b61671f5f826166b9565b50565b5f821461673257616731616229565b5b61673b81616715565b5050565b5b8181101561675d576167525f82616722565b600181019050616740565b5050565b8183101561679a5761677282616516565b61677b84616516565b6167848361652a565b818101838201616794818361673f565b50505050505b505050565b680100000000000000008211156167b9576167b8614f6d565b5b6167c28161650c565b8282556167d0838284616761565b505050565b5f82905092915050565b6167e983836167d5565b6167f3818361679f565b6167fc83616503565b6168058361652a565b5f5b8381101561683d576168198387616255565b61682481838661638e565b6020850194506001840193505050600181019050616807565b50505050505050565b6168518383836167df565b505050565b5f8135616862816149e6565b80915050919050565b61687482615b35565b61688761688082615b56565b83546163be565b8255505050565b5f813561689a81614b07565b80915050919050565b5f60ff6168af846163b3565b9350801983169250808416831791505092915050565b5f6168df6168da6168d584614afb565b614d47565b614afb565b9050919050565b5f819050919050565b6168f8826168c5565b61690b616904826168e6565b83546168a3565b8255505050565b5f81015f83016169228185616255565b61692d81838661638e565b5050505060018101602083016169438185616255565b61694e81838661638e565b50505050600281016040830161696481856164a1565b61696f818386616846565b505050506003810160608301806169858161639e565b9050616991818461642c565b5050506004810160808301806169a681616856565b90506169b2818461686b565b5050506005810160a08301806169c78161688e565b90506169d381846168ef565b5050505050565b6169e48282616912565b5050565b7f416c726561647920617574686f72697a656400000000000000000000000000005f82015250565b5f616a1c601283614957565b9150616a27826169e8565b602082019050919050565b5f6020820190508181035f830152616a4981616a10565b9050919050565b5f81519050919050565b5f82825260208201905092915050565b5f819050602082019050919050565b5f81519050919050565b5f82825260208201905092915050565b5f616a9d82616a79565b616aa78185616a83565b9350616ab7818560208601614967565b616ac081614975565b840191505092915050565b5f616ad68383616a93565b905092915050565b5f602082019050919050565b5f616af482616a50565b616afe8185616a5a565b935083602082028501616b1085616a6a565b805f5b85811015616b4b5784840389528151616b2c8582616acb565b9450616b3783616ade565b925060208a01995050600181019050616b13565b50829750879550505050505092915050565b5f6020820190508181035f830152616b758184616aea565b905092915050565b5f604082019050616b905f830185614a6b565b616b9d6020830184614a6b565b9392505050565b5f604082019050616bb75f830185614a6b565b616bc46020830184614d1f565b9392505050565b7f456d7074792070726f6f667320617272617900000000000000000000000000005f82015250565b5f616bff601283614957565b9150616c0a82616bcb565b602082019050919050565b5f6020820190508181035f830152616c2c81616bf3565b9050919050565b5f82825260208201905092915050565b5f819050919050565b5f5ffd5b5f8235600160a003833603038112616c6b57616c6a616c4c565b5b82810191505092915050565b5f616c856020840184614ce0565b905092915050565b5f5ffd5b5f5ffd5b5f5f83356001602003843603038112616cb157616cb0616c4c565b5b83810192508235915060208301925067ffffffffffffffff821115616cd957616cd8616c8d565b5b600182023603831315616cef57616cee616c91565b5b509250929050565b5f616d028385616a83565b9350616d0f838584615015565b616d1883614975565b840190509392505050565b5f60a08301616d345f840184616c77565b616d405f860182614e6a565b50616d4e6020840184616c77565b616d5b6020860182614e6a565b50616d696040840184616c95565b8583036040870152616d7c838284616cf7565b92505050616d8d6060840184616c95565b8583036060870152616da0838284616cf7565b92505050616db16080840184616c95565b8583036080870152616dc4838284616cf7565b925050508091505092915050565b5f8235600160e003833603038112616ded57616dec616c4c565b5b82810191505092915050565b60028110616e05575f5ffd5b50565b5f81359050616e1681616df9565b92915050565b5f616e2a6020840184616e08565b905092915050565b7f4e487b71000000000000000000000000000000000000000000000000000000005f52602160045260245ffd5b60028110616e7057616e6f616e32565b5b50565b5f819050616e8082616e5f565b919050565b5f616e8f82616e73565b9050919050565b616e9f81616e85565b82525050565b5f60e08301616eb65f840184616e1c565b616ec25f860182616e96565b50616ed06020840184616c77565b616edd6020860182614e6a565b50616eeb6040840184616c77565b616ef86040860182614e6a565b50616f066060840184616c95565b8583036060870152616f19838284616cf7565b92505050616f2a6080840184616c95565b8583036080870152616f3d838284616cf7565b92505050616f4e60a0840184616c95565b85830360a0870152616f61838284616cf7565b92505050616f7260c0840184616c95565b85830360c0870152616f85838284616cf7565b925050508091505092915050565b5f60408301616fa45f840184616c50565b8482035f860152616fb58282616d23565b915050616fc56020840184616dd2565b8482036020860152616fd78282616ea5565b9150508091505092915050565b5f616fef8383616f93565b905092915050565b5f8235600160400383360303811261701257617011616c4c565b5b82810191505092915050565b5f602082019050919050565b5f6170358385616c33565b93508360208402850161704784616c43565b805f5b8781101561708a5784840389526170618284616ff7565b61706b8582616fe4565b94506170768361701e565b925060208a0199505060018101905061704a565b50829750879450505050509392505050565b5f6020820190508181035f8301526170b581848661702a565b90509392505050565b5f67ffffffffffffffff8211156170d8576170d7614f6d565b5b602082029050602081019050919050565b5f5ffd5b5f5ffd5b5f815190506170ff81614cca565b92915050565b5f67ffffffffffffffff82111561711f5761711e614f6d565b5b61712882614975565b9050602081019050919050565b5f61714761714284617105565b614fcb565b90508281526020810184848401111561716357617162614f69565b5b61716e848285614967565b509392505050565b5f82601f83011261718a57617189614f65565b5b815161719a848260208601617135565b91505092915050565b5f815190506171b181614a93565b92915050565b5f61010082840312156171cd576171cc6170e9565b5b6171d8610100614fcb565b90505f6171e7848285016170f1565b5f8301525060206171fa848285016170f1565b602083015250604082015167ffffffffffffffff81111561721e5761721d6170ed565b5b61722a84828501617176565b604083015250606082015167ffffffffffffffff81111561724e5761724d6170ed565b5b61725a84828501617176565b606083015250608082015167ffffffffffffffff81111561727e5761727d6170ed565b5b61728a84828501617176565b60808301525060a061729e848285016171a3565b60a08301525060c082015167ffffffffffffffff8111156172c2576172c16170ed565b5b6172ce84828501617176565b60c08301525060e082015167ffffffffffffffff8111156172f2576172f16170ed565b5b6172fe84828501617176565b60e08301525092915050565b5f61731c617317846170be565b614fcb565b9050808382526020820190506020840283018581111561733f5761733e6151c1565b5b835b8181101561738657805167ffffffffffffffff81111561736457617363614f65565b5b80860161737189826171b7565b85526020850194505050602081019050617341565b5050509392505050565b5f82601f8301126173a4576173a3614f65565b5b81516173b484826020860161730a565b91505092915050565b5f602082840312156173d2576173d1614892565b5b5f82015167ffffffffffffffff8111156173ef576173ee614896565b5b6173fb84828501617390565b91505092915050565b7f50726f6f6620636f756e74206d69736d617463680000000000000000000000005f82015250565b5f617438601483614957565b915061744382617404565b602082019050919050565b5f6020820190508181035f8301526174658161742c565b9050919050565b7f4f6c6420646174612068617368206d69736d61746368000000000000000000005f82015250565b5f6174a0601683614957565b91506174ab8261746c565b602082019050919050565b5f6020820190508181035f8301526174cd81617494565b9050919050565b7f41636365737320617373697374616e74206d69736d61746368000000000000005f82015250565b5f617508601983614957565b9150617513826174d4565b602082019050919050565b5f6020820190508181035f830152617535816174fc565b9050919050565b7f44656661756c742077616e746564207265636569766572206d69736d617463685f82015250565b5f617570602083614957565b915061757b8261753c565b602082019050919050565b5f6020820190508181035f83015261759d81617564565b9050919050565b7f656e637279707465645075624b6579206d69736d6174636800000000000000005f82015250565b5f6175d8601883614957565b91506175e3826175a4565b602082019050919050565b5f6020820190508181035f830152617605816175cc565b9050919050565b7f496e76616c6964207075626c6963206b6579206c656e677468000000000000005f82015250565b5f617640601983614957565b915061764b8261760c565b602082019050919050565b5f6020820190508181035f83015261766d81617634565b905091905056fea26469706673582212206fc6381c667026ad320bfd25e8e42177c5ee9d876028b86ac07868f7bc4bbd9c64736f6c634300081c0033","linkReferences":{}},"methodIdentifiers":{"ADMIN_ROLE()":"75b238fc","DEFAULT_ADMIN_ROLE()":"a217fddf","MAX_AUTHORIZED_USERS()":"a5cf3d18","PAUSER_ROLE()":"e63ab1e9","VERSION()":"ffa1ad74","admin()":"f851a440","approve(address,uint256)":"095ea7b3","authorizeUsage(uint256,address)":"fa83d14e","authorizedUsersOf(uint256)":"1aeb542f","batchAuthorizeUsage(uint256,address[])":"f30c6a0c","clearAuthorizedUsers(uint256)":"0f5cbc03","delegateAccess(address)":"98bd57de","getAgentProfile(uint256)":"f098a7ae","getApproved(uint256)":"081812fc","getDelegateAccess(address)":"0e592fdd","getRoleAdmin(bytes32)":"248a9ca3","grantRole(bytes32,address)":"2f2ff15d","hasRole(bytes32,address)":"91d14854","iClone(address,uint256,((bytes32,bytes32,bytes,bytes,bytes),(uint8,bytes32,bytes32,bytes,bytes,bytes,bytes))[])":"e915c38a","iCloneFrom(address,address,uint256,((bytes32,bytes32,bytes,bytes,bytes),(uint8,bytes32,bytes32,bytes,bytes,bytes,bytes))[])":"c5c4aa45","iTransfer(address,uint256,((bytes32,bytes32,bytes,bytes,bytes),(uint8,bytes32,bytes32,bytes,bytes,bytes,bytes))[])":"b0654873","iTransferFrom(address,address,uint256,((bytes32,bytes32,bytes,bytes,bytes),(uint8,bytes32,bytes32,bytes,bytes,bytes,bytes))[])":"ebe5229d","initialize(string,string,address,address)":"8f15b414","intelligentDataOf(uint256)":"393df216","isApprovedForAll(address,address)":"e985e9c5","mint((string,bytes32)[],address,(string,string,string[],bytes32,uint256,uint8))":"f7f13895","name()":"06fdde03","ownerOf(uint256)":"6352211e","paused()":"5c975abb","renounceRole(bytes32,address)":"36568abe","revokeAuthorization(uint256,address)":"c3612ef7","revokeRole(bytes32,address)":"d547741f","setAdmin(address)":"704b6c02","setApprovalForAll(address,bool)":"a22cb465","setOracle(address)":"7adbf973","supportsInterface(bytes4)":"01ffc9a7","symbol()":"95d89b41","transferFrom(address,address,uint256)":"23b872dd","updateHappiness(uint256,uint8)":"0cf7d9b3","updateVerifier(address)":"97fc007c","verifier()":"2b7ac3f3"},"id":35}