{"abi":[{"type":"constructor","inputs":[],"stateMutability":"nonpayable"},{"type":"function","name":"agentNFTAddress","inputs":[],"outputs":[{"name":"","type":"address","internalType":"address"}],"stateMutability":"view"},{"type":"function","name":"getOracleLastUpdate","inputs":[{"name":"tokenId","type":"uint256","internalType":"uint256"}],"outputs":[{"name":"","type":"uint256","internalType":"uint256"}],"stateMutability":"view"},{"type":"function","name":"getRegisteredAgentCount","inputs":[],"outputs":[{"name":"","type":"uint256","internalType":"uint256"}],"stateMutability":"view"},{"type":"function","name":"initialize","inputs":[{"name":"_owner","type":"address","internalType":"address"},{"name":"_agentNFTAddress","type":"address","internalType":"address"}],"outputs":[],"stateMutability":"nonpayable"},{"type":"function","name":"isAgentRegistered","inputs":[{"name":"tokenId","type":"uint256","internalType":"uint256"}],"outputs":[{"name":"","type":"bool","internalType":"bool"}],"stateMutability":"view"},{"type":"function","name":"owner","inputs":[],"outputs":[{"name":"","type":"address","internalType":"address"}],"stateMutability":"view"},{"type":"function","name":"registerAgent","inputs":[{"name":"tokenId","type":"uint256","internalType":"uint256"}],"outputs":[],"stateMutability":"nonpayable"},{"type":"function","name":"renounceOwnership","inputs":[],"outputs":[],"stateMutability":"nonpayable"},{"type":"function","name":"setAgentNFTAddress","inputs":[{"name":"_newAgentNFTAddress","type":"address","internalType":"address"}],"outputs":[],"stateMutability":"nonpayable"},{"type":"function","name":"transferOwnership","inputs":[{"name":"newOwner","type":"address","internalType":"address"}],"outputs":[],"stateMutability":"nonpayable"},{"type":"function","name":"updateAgentHappiness","inputs":[{"name":"tokenId","type":"uint256","internalType":"uint256"},{"name":"newHappinessScore","type":"uint8","internalType":"uint8"}],"outputs":[],"stateMutability":"nonpayable"},{"type":"event","name":"AgentNFTAddressUpdated","inputs":[{"name":"oldAddress","type":"address","indexed":true,"internalType":"address"},{"name":"newAddress","type":"address","indexed":true,"internalType":"address"}],"anonymous":false},{"type":"event","name":"AgentRegistered","inputs":[{"name":"tokenId","type":"uint256","indexed":true,"internalType":"uint256"},{"name":"registeredBy","type":"address","indexed":true,"internalType":"address"}],"anonymous":false},{"type":"event","name":"Initialized","inputs":[{"name":"version","type":"uint64","indexed":false,"internalType":"uint64"}],"anonymous":false},{"type":"event","name":"OracleHappinessUpdateTriggered","inputs":[{"name":"tokenId","type":"uint256","indexed":true,"internalType":"uint256"},{"name":"oldHappiness","type":"uint8","indexed":false,"internalType":"uint8"},{"name":"newHappiness","type":"uint8","indexed":false,"internalType":"uint8"}],"anonymous":false},{"type":"event","name":"OwnershipTransferred","inputs":[{"name":"previousOwner","type":"address","indexed":true,"internalType":"address"},{"name":"newOwner","type":"address","indexed":true,"internalType":"address"}],"anonymous":false},{"type":"error","name":"InvalidInitialization","inputs":[]},{"type":"error","name":"NotInitializing","inputs":[]},{"type":"error","name":"OwnableInvalidOwner","inputs":[{"name":"owner","type":"address","internalType":"address"}]},{"type":"error","name":"OwnableUnauthorizedAccount","inputs":[{"name":"account","type":"address","internalType":"address"}]}],"bytecode":{"object":"0x608060405234801561000f575f5ffd5b5061001e61002360201b60201c565b61019e565b5f61003261012160201b60201c565b9050805f0160089054906101000a900460ff161561007c576040517ff92ee8a900000000000000000000000000000000000000000000000000000000815260040160405180910390fd5b67ffffffffffffffff8016815f015f9054906101000a900467ffffffffffffffff1667ffffffffffffffff161461011e5767ffffffffffffffff815f015f6101000a81548167ffffffffffffffff021916908367ffffffffffffffff1602179055507fc7f505b2f371ae2175ee4913f4499e1f2633a7b5936321eed1cdaeb6115181d267ffffffffffffffff6040516101159190610185565b60405180910390a15b50565b5f5f61013161013a60201b60201c565b90508091505090565b5f7ff0c57e16840df040f15088dc2f81fe391c3923bec73e23a9662efc9c229c6a005f1b905090565b5f67ffffffffffffffff82169050919050565b61017f81610163565b82525050565b5f6020820190506101985f830184610176565b92915050565b6115f6806101ab5f395ff3fe608060405234801561000f575f5ffd5b50600436106100a7575f3560e01c8063715018a61161006f578063715018a61461014d5780638da5cb5b146101575780639bb6aafa146101755780639d18755d14610191578063d5585aa6146101c1578063f2fde38b146101df576100a7565b80630fceb8be146100ab57806317544c5b146100c9578063485cc955146100f9578063599a4848146101155780635d0ff59f14610131575b5f5ffd5b6100b36101fb565b6040516100c09190610d07565b60405180910390f35b6100e360048036038101906100de9190610d5b565b610204565b6040516100f09190610d07565b60405180910390f35b610113600480360381019061010e9190610de0565b61021e565b005b61012f600480360381019061012a9190610e1e565b6104a7565b005b61014b60048036038101906101469190610d5b565b6105d9565b005b6101556106c5565b005b61015f6106d8565b60405161016c9190610e58565b60405180910390f35b61018f600480360381019061018a9190610ea7565b61070d565b005b6101ab60048036038101906101a69190610d5b565b610969565b6040516101b89190610eff565b60405180910390f35b6101c961098f565b6040516101d69190610e58565b60405180910390f35b6101f960048036038101906101f49190610e1e565b6109b3565b005b5f600354905090565b5f60025f8381526020019081526020015f20549050919050565b5f610227610a37565b90505f815f0160089054906101000a900460ff161590505f825f015f9054906101000a900467ffffffffffffffff1690505f5f8267ffffffffffffffff1614801561026f5750825b90505f60018367ffffffffffffffff161480156102a257505f3073ffffffffffffffffffffffffffffffffffffffff163b145b9050811580156102b0575080155b156102e7576040517ff92ee8a900000000000000000000000000000000000000000000000000000000815260040160405180910390fd5b6001855f015f6101000a81548167ffffffffffffffff021916908367ffffffffffffffff1602179055508315610334576001855f0160086101000a81548160ff0219169083151502179055505b61033d87610a4a565b5f73ffffffffffffffffffffffffffffffffffffffff168673ffffffffffffffffffffffffffffffffffffffff16036103ab576040517f08c379a00000000000000000000000000000000000000000000000000000000081526004016103a290610f72565b60405180910390fd5b855f5f6101000a81548173ffffffffffffffffffffffffffffffffffffffff021916908373ffffffffffffffffffffffffffffffffffffffff1602179055508573ffffffffffffffffffffffffffffffffffffffff165f73ffffffffffffffffffffffffffffffffffffffff167f3b44416bd797b0681c2e4cb9e4c70cc7c1b1ce61f19d636cc9cc415a153167e260405160405180910390a3831561049e575f855f0160086101000a81548160ff0219169083151502179055507fc7f505b2f371ae2175ee4913f4499e1f2633a7b5936321eed1cdaeb6115181d260016040516104959190610fe5565b60405180910390a15b50505050505050565b6104af610a5e565b5f73ffffffffffffffffffffffffffffffffffffffff168173ffffffffffffffffffffffffffffffffffffffff160361051d576040517f08c379a000000000000000000000000000000000000000000000000000000000815260040161051490610f72565b60405180910390fd5b8073ffffffffffffffffffffffffffffffffffffffff165f5f9054906101000a900473ffffffffffffffffffffffffffffffffffffffff1673ffffffffffffffffffffffffffffffffffffffff167f3b44416bd797b0681c2e4cb9e4c70cc7c1b1ce61f19d636cc9cc415a153167e260405160405180910390a3805f5f6101000a81548173ffffffffffffffffffffffffffffffffffffffff021916908373ffffffffffffffffffffffffffffffffffffffff16021790555050565b6105e1610a5e565b60015f8281526020019081526020015f205f9054906101000a900460ff161561063f576040517f08c379a000000000000000000000000000000000000000000000000000000000815260040161063690611048565b60405180910390fd5b6001805f8381526020019081526020015f205f6101000a81548160ff02191690831515021790555060035f81548092919061067990611093565b91905055503373ffffffffffffffffffffffffffffffffffffffff16817fba9d3be5149ecab5ff8e380633795e5d9153c2f0e1ec952dd1de4611d661c9f560405160405180910390a350565b6106cd610a5e565b6106d65f610ae5565b565b5f5f6106e2610bb6565b9050805f015f9054906101000a900473ffffffffffffffffffffffffffffffffffffffff1691505090565b610715610a5e565b60015f8381526020019081526020015f205f9054906101000a900460ff16610772576040517f08c379a000000000000000000000000000000000000000000000000000000000815260040161076990611124565b60405180910390fd5b5f73ffffffffffffffffffffffffffffffffffffffff165f5f9054906101000a900473ffffffffffffffffffffffffffffffffffffffff1673ffffffffffffffffffffffffffffffffffffffff1603610800576040517f08c379a00000000000000000000000000000000000000000000000000000000081526004016107f79061118c565b60405180910390fd5b5f5f5f9054906101000a900473ffffffffffffffffffffffffffffffffffffffff1690505f8173ffffffffffffffffffffffffffffffffffffffff1663f098a7ae856040518263ffffffff1660e01b815260040161085e9190610d07565b5f60405180830381865afa158015610878573d5f5f3e3d5ffd5b505050506040513d5f823e3d601f19601f820116820180604052508101906108a0919061151c565b90505f8160a0015190508273ffffffffffffffffffffffffffffffffffffffff16630cf7d9b386866040518363ffffffff1660e01b81526004016108e5929190611572565b5f604051808303815f87803b1580156108fc575f5ffd5b505af115801561090e573d5f5f3e3d5ffd5b505050504260025f8781526020019081526020015f2081905550847f570675dbf736a4445ec1068f17a61f0a3e37277ffdc9758299589082ad2ac31d828660405161095a929190611599565b60405180910390a25050505050565b5f60015f8381526020019081526020015f205f9054906101000a900460ff169050919050565b5f5f9054906101000a900473ffffffffffffffffffffffffffffffffffffffff1681565b6109bb610a5e565b5f73ffffffffffffffffffffffffffffffffffffffff168173ffffffffffffffffffffffffffffffffffffffff1603610a2b575f6040517f1e4fbdf7000000000000000000000000000000000000000000000000000000008152600401610a229190610e58565b60405180910390fd5b610a3481610ae5565b50565b5f5f610a41610bdd565b90508091505090565b610a52610c06565b610a5b81610c46565b50565b610a66610cca565b73ffffffffffffffffffffffffffffffffffffffff16610a846106d8565b73ffffffffffffffffffffffffffffffffffffffff1614610ae357610aa7610cca565b6040517f118cdaa7000000000000000000000000000000000000000000000000000000008152600401610ada9190610e58565b60405180910390fd5b565b5f610aee610bb6565b90505f815f015f9054906101000a900473ffffffffffffffffffffffffffffffffffffffff16905082825f015f6101000a81548173ffffffffffffffffffffffffffffffffffffffff021916908373ffffffffffffffffffffffffffffffffffffffff1602179055508273ffffffffffffffffffffffffffffffffffffffff168173ffffffffffffffffffffffffffffffffffffffff167f8be0079c531659141344cd1fd0a4f28419497f9722a3daafe3b4186f6b6457e060405160405180910390a3505050565b5f7f9016d09d72d40fdae2fd8ceac6b6234c7706214fd39c1cd1e609a0528c199300905090565b5f7ff0c57e16840df040f15088dc2f81fe391c3923bec73e23a9662efc9c229c6a005f1b905090565b610c0e610cd1565b610c44576040517fd7e6bcf800000000000000000000000000000000000000000000000000000000815260040160405180910390fd5b565b610c4e610c06565b5f73ffffffffffffffffffffffffffffffffffffffff168173ffffffffffffffffffffffffffffffffffffffff1603610cbe575f6040517f1e4fbdf7000000000000000000000000000000000000000000000000000000008152600401610cb59190610e58565b60405180910390fd5b610cc781610ae5565b50565b5f33905090565b5f610cda610a37565b5f0160089054906101000a900460ff16905090565b5f819050919050565b610d0181610cef565b82525050565b5f602082019050610d1a5f830184610cf8565b92915050565b5f604051905090565b5f5ffd5b5f5ffd5b610d3a81610cef565b8114610d44575f5ffd5b50565b5f81359050610d5581610d31565b92915050565b5f60208284031215610d7057610d6f610d29565b5b5f610d7d84828501610d47565b91505092915050565b5f73ffffffffffffffffffffffffffffffffffffffff82169050919050565b5f610daf82610d86565b9050919050565b610dbf81610da5565b8114610dc9575f5ffd5b50565b5f81359050610dda81610db6565b92915050565b5f5f60408385031215610df657610df5610d29565b5b5f610e0385828601610dcc565b9250506020610e1485828601610dcc565b9150509250929050565b5f60208284031215610e3357610e32610d29565b5b5f610e4084828501610dcc565b91505092915050565b610e5281610da5565b82525050565b5f602082019050610e6b5f830184610e49565b92915050565b5f60ff82169050919050565b610e8681610e71565b8114610e90575f5ffd5b50565b5f81359050610ea181610e7d565b92915050565b5f5f60408385031215610ebd57610ebc610d29565b5b5f610eca85828601610d47565b9250506020610edb85828601610e93565b9150509250929050565b5f8115159050919050565b610ef981610ee5565b82525050565b5f602082019050610f125f830184610ef0565b92915050565b5f82825260208201905092915050565b7f5a65726f206164647265737320666f72204167656e744e4654000000000000005f82015250565b5f610f5c601983610f18565b9150610f6782610f28565b602082019050919050565b5f6020820190508181035f830152610f8981610f50565b9050919050565b5f819050919050565b5f67ffffffffffffffff82169050919050565b5f819050919050565b5f610fcf610fca610fc584610f90565b610fac565b610f99565b9050919050565b610fdf81610fb5565b82525050565b5f602082019050610ff85f830184610fd6565b92915050565b7f4167656e7420616c7265616479207265676973746572656400000000000000005f82015250565b5f611032601883610f18565b915061103d82610ffe565b602082019050919050565b5f6020820190508181035f83015261105f81611026565b9050919050565b7f4e487b71000000000000000000000000000000000000000000000000000000005f52601160045260245ffd5b5f61109d82610cef565b91507fffffffffffffffffffffffffffffffffffffffffffffffffffffffffffffffff82036110cf576110ce611066565b5b600182019050919050565b7f4167656e74206e6f7420726567697374657265642077697468206f7261636c655f82015250565b5f61110e602083610f18565b9150611119826110da565b602082019050919050565b5f6020820190508181035f83015261113b81611102565b9050919050565b7f4167656e744e46542061646472657373206e6f742073657400000000000000005f82015250565b5f611176601883610f18565b915061118182611142565b602082019050919050565b5f6020820190508181035f8301526111a38161116a565b9050919050565b5f5ffd5b5f601f19601f8301169050919050565b7f4e487b71000000000000000000000000000000000000000000000000000000005f52604160045260245ffd5b6111f4826111ae565b810181811067ffffffffffffffff82111715611213576112126111be565b5b80604052505050565b5f611225610d20565b905061123182826111eb565b919050565b5f5ffd5b5f5ffd5b5f5ffd5b5f67ffffffffffffffff82111561125c5761125b6111be565b5b611265826111ae565b9050602081019050919050565b8281835e5f83830152505050565b5f61129261128d84611242565b61121c565b9050828152602081018484840111156112ae576112ad61123e565b5b6112b9848285611272565b509392505050565b5f82601f8301126112d5576112d461123a565b5b81516112e5848260208601611280565b91505092915050565b5f67ffffffffffffffff821115611308576113076111be565b5b602082029050602081019050919050565b5f5ffd5b5f61132f61132a846112ee565b61121c565b9050808382526020820190506020840283018581111561135257611351611319565b5b835b8181101561139957805167ffffffffffffffff8111156113775761137661123a565b5b80860161138489826112c1565b85526020850194505050602081019050611354565b5050509392505050565b5f82601f8301126113b7576113b661123a565b5b81516113c784826020860161131d565b91505092915050565b5f819050919050565b6113e2816113d0565b81146113ec575f5ffd5b50565b5f815190506113fd816113d9565b92915050565b5f8151905061141181610d31565b92915050565b5f8151905061142581610e7d565b92915050565b5f60c082840312156114405761143f6111aa565b5b61144a60c061121c565b90505f82015167ffffffffffffffff81111561146957611468611236565b5b611475848285016112c1565b5f83015250602082015167ffffffffffffffff81111561149857611497611236565b5b6114a4848285016112c1565b602083015250604082015167ffffffffffffffff8111156114c8576114c7611236565b5b6114d4848285016113a3565b60408301525060606114e8848285016113ef565b60608301525060806114fc84828501611403565b60808301525060a061151084828501611417565b60a08301525092915050565b5f6020828403121561153157611530610d29565b5b5f82015167ffffffffffffffff81111561154e5761154d610d2d565b5b61155a8482850161142b565b91505092915050565b61156c81610e71565b82525050565b5f6040820190506115855f830185610cf8565b6115926020830184611563565b9392505050565b5f6040820190506115ac5f830185611563565b6115b96020830184611563565b939250505056fea26469706673582212207c11838881529ddb7b5e21eb3cc3865b788905f9bb8a6a6193edba72ab8dd4c564736f6c634300081c0033","linkReferences":{}},"methodIdentifiers":{"agentNFTAddress()":"d5585aa6","getOracleLastUpdate(uint256)":"17544c5b","getRegisteredAgentCount()":"0fceb8be","initialize(address,address)":"485cc955","isAgentRegistered(uint256)":"9d18755d","owner()":"8da5cb5b","registerAgent(uint256)":"5d0ff59f","renounceOwnership()":"715018a6","setAgentNFTAddress(address)":"599a4848","transferOwnership(address)":"f2fde38b","updateAgentHappiness(uint256,uint8)":"9bb6aafa"},"id":37}